{
  "contractName": "AddressList",
  "abi": [
    {
      "constant": true,
      "inputs": [
        {
          "name": "",
          "type": "uint256"
        }
      ],
      "name": "addresses",
      "outputs": [
        {
          "name": "",
          "type": "address"
        }
      ],
      "payable": false,
      "stateMutability": "view",
      "type": "function"
    },
    {
      "inputs": [],
      "payable": false,
      "stateMutability": "nonpayable",
      "type": "constructor"
    },
    {
      "constant": true,
      "inputs": [],
      "name": "get_all_addresses",
      "outputs": [
        {
          "name": "",
          "type": "address[]"
        }
      ],
      "payable": false,
      "stateMutability": "view",
      "type": "function"
    },
    {
      "constant": true,
      "inputs": [
        {
          "name": "i",
          "type": "uint256"
        }
      ],
      "name": "get_address",
      "outputs": [
        {
          "name": "",
          "type": "address"
        }
      ],
      "payable": false,
      "stateMutability": "view",
      "type": "function"
    },
    {
      "constant": true,
      "inputs": [],
      "name": "get_address_num",
      "outputs": [
        {
          "name": "",
          "type": "uint256"
        }
      ],
      "payable": false,
      "stateMutability": "view",
      "type": "function"
    },
    {
      "constant": true,
      "inputs": [
        {
          "name": "addr",
          "type": "address"
        }
      ],
      "name": "is_address_exist",
      "outputs": [
        {
          "name": "",
          "type": "bool"
        }
      ],
      "payable": false,
      "stateMutability": "view",
      "type": "function"
    }
  ],
  "bytecode": "0x608060405234801561001057600080fd5b506102d0806100206000396000f3fe608060405234801561001057600080fd5b50600436106100575760003560e01c806313bc26351461005c578063395dbfae14610096578063493f4f74146100ee578063aebf208514610127578063edf26d9b14610141575b600080fd5b6100826004803603602081101561007257600080fd5b50356001600160a01b031661015e565b604080519115158252519081900360200190f35b61009e61017c565b60408051602080825283518183015283519192839290830191858101910280838360005b838110156100da5781810151838201526020016100c2565b505050509050019250505060405180910390f35b61010b6004803603602081101561010457600080fd5b50356101de565b604080516001600160a01b039092168252519081900360200190f35b61012f610249565b60408051918252519081900360200190f35b61010b6004803603602081101561015757600080fd5b503561024f565b6001600160a01b031660009081526020819052604090205460ff1690565b606060018054806020026020016040519081016040528092919081815260200182805480156101d457602002820191906000526020600020905b81546001600160a01b031681526001909101906020018083116101b6575b5050505050905090565b60015460009082106102215760405162461bcd60e51b81526004018080602001828103825260258152602001806102776025913960400191505060405180910390fd5b6001828154811061022e57fe5b6000918252602090912001546001600160a01b031692915050565b60015490565b6001818154811061025c57fe5b6000918252602090912001546001600160a01b031690508156fe416464726573734c6973743a6765745f616464726573732c206f7574206f662072616e6765a265627a7a723058200e5c83b069fe867a8d2bf7fd610fd20bb00cf442e44aab03d9ce755f2cb89d8d64736f6c634300050a0032",
  "source": "pragma solidity >=0.4.21 <0.6.0;\n\nimport \"./utils/Arrays.sol\";\nimport \"./MultiSigTools.sol\";\n\ncontract AddressList{\n  using AddressArray for address[];\n  mapping(address => bool) private address_status;\n  address[] public addresses;\n\n  constructor() public{}\n\n  function get_all_addresses() public view returns(address[] memory){\n    return addresses;\n  }\n\n  function get_address(uint i) public view returns(address){\n    require(i < addresses.length, \"AddressList:get_address, out of range\");\n    return addresses[i];\n  }\n\n  function get_address_num() public view returns(uint){\n    return addresses.length;\n  }\n\n  function is_address_exist(address addr) public view returns(bool){\n    return address_status[addr];\n  }\n\n  function _add_address(address addr) internal{\n    if(address_status[addr]) return;\n    address_status[addr] = true;\n    addresses.push(addr);\n  }\n\n  function _remove_address(address addr) internal{\n    if(!address_status[addr]) return;\n    address_status[addr] = false;\n    addresses.remove(addr);\n  }\n\n  function _reset() internal{\n    for(uint i = 0; i < addresses.length; i++){\n      address_status[addresses[i]] = false;\n    }\n    delete addresses;\n  }\n}\n\ncontract TrustList is AddressList, MultiSigTools{\n\n  event AddTrust(address addr);\n  event RemoveTrust(address addr);\n\n  constructor(address[] memory _list, address _multisig) public MultiSigTools(_multisig){\n    for(uint i = 0; i < _list.length; i++){\n      _add_address(_list[i]);\n    }\n  }\n\n  function is_trusted(address addr) public view returns(bool){\n    return is_address_exist(addr);\n  }\n\n  function get_trusted(uint i) public view returns(address){\n    return get_address(i);\n  }\n\n  function get_trusted_num() public view returns(uint){\n    return get_address_num();\n  }\n\n  function add_trusted(uint64 id, address addr) public\n    only_signer is_majority_sig(id, \"add_trusted\"){\n    _add_address(addr);\n    emit AddTrust(addr);\n  }\n  function add_multi_trusted(uint64 id, address[] memory _list) public\n    only_signer is_majority_sig(id, \"add_multi_trusted\"){\n    for(uint i = 0; i < _list.length; i++){\n      _add_address(_list[i]);\n      emit AddTrust(_list[i]);\n    }\n  }\n\n  function remove_trusted(uint64 id, address addr) public\n    only_signer is_majority_sig(id, \"remove_trusted\"){\n    _remove_address(addr);\n    emit RemoveTrust(addr);\n  }\n\n  function remove_multi_trusted(uint64 id, address[] memory _list) public\n  only_signer is_majority_sig(id, \"remove_multi_trusted\"){\n    for(uint i = 0; i < _list.length; i++){\n      _remove_address(_list[i]);\n      emit RemoveTrust(_list[i]);\n    }\n  }\n}\n\ncontract TrustListFactory{\n  event NewTrustList(address addr, address[] list, address multisig);\n\n  function createTrustList(address[] memory _list, address _multisig) public returns(address){\n    TrustList tl = new TrustList(_list, _multisig);\n    emit NewTrustList(address(tl), _list, _multisig);\n    return address(tl);\n  }\n}\n\n",
  "sourcePath": "/Users/xuepeng/git/gttoken-contract/contracts/AddressList.sol",
  "compiler": {
    "name": "solc",
    "version": "0.5.10+commit.5a6ea5b1.Emscripten.clang"
  },
  "schemaVersion": "3.0.11",
  "updatedAt": "2019-10-27T07:57:11.477Z",
  "devdoc": {
    "methods": {}
  },
  "userdoc": {
    "methods": {}
  }
}