{
  "contractName": "ERC20Base",
  "abi": [
    {
      "constant": true,
      "inputs": [],
      "name": "name",
      "outputs": [
        {
          "name": "",
          "type": "string"
        }
      ],
      "payable": false,
      "stateMutability": "view",
      "type": "function"
    },
    {
      "constant": true,
      "inputs": [],
      "name": "creationBlock",
      "outputs": [
        {
          "name": "",
          "type": "uint256"
        }
      ],
      "payable": false,
      "stateMutability": "view",
      "type": "function"
    },
    {
      "constant": true,
      "inputs": [],
      "name": "decimals",
      "outputs": [
        {
          "name": "",
          "type": "uint8"
        }
      ],
      "payable": false,
      "stateMutability": "view",
      "type": "function"
    },
    {
      "constant": true,
      "inputs": [],
      "name": "version",
      "outputs": [
        {
          "name": "",
          "type": "string"
        }
      ],
      "payable": false,
      "stateMutability": "view",
      "type": "function"
    },
    {
      "constant": true,
      "inputs": [],
      "name": "parentToken",
      "outputs": [
        {
          "name": "",
          "type": "address"
        }
      ],
      "payable": false,
      "stateMutability": "view",
      "type": "function"
    },
    {
      "constant": true,
      "inputs": [],
      "name": "symbol",
      "outputs": [
        {
          "name": "",
          "type": "string"
        }
      ],
      "payable": false,
      "stateMutability": "view",
      "type": "function"
    },
    {
      "constant": true,
      "inputs": [],
      "name": "transfersEnabled",
      "outputs": [
        {
          "name": "",
          "type": "bool"
        }
      ],
      "payable": false,
      "stateMutability": "view",
      "type": "function"
    },
    {
      "constant": true,
      "inputs": [],
      "name": "parentSnapShotBlock",
      "outputs": [
        {
          "name": "",
          "type": "uint256"
        }
      ],
      "payable": false,
      "stateMutability": "view",
      "type": "function"
    },
    {
      "inputs": [
        {
          "name": "_parentToken",
          "type": "address"
        },
        {
          "name": "_parentSnapShotBlock",
          "type": "uint256"
        },
        {
          "name": "_tokenName",
          "type": "string"
        },
        {
          "name": "_decimalUnits",
          "type": "uint8"
        },
        {
          "name": "_tokenSymbol",
          "type": "string"
        },
        {
          "name": "_transfersEnabled",
          "type": "bool"
        }
      ],
      "payable": false,
      "stateMutability": "nonpayable",
      "type": "constructor"
    },
    {
      "payable": true,
      "stateMutability": "payable",
      "type": "fallback"
    },
    {
      "anonymous": false,
      "inputs": [
        {
          "indexed": true,
          "name": "_from",
          "type": "address"
        },
        {
          "indexed": true,
          "name": "_to",
          "type": "address"
        },
        {
          "indexed": false,
          "name": "_amount",
          "type": "uint256"
        }
      ],
      "name": "Transfer",
      "type": "event"
    },
    {
      "anonymous": false,
      "inputs": [
        {
          "indexed": true,
          "name": "_owner",
          "type": "address"
        },
        {
          "indexed": true,
          "name": "_spender",
          "type": "address"
        },
        {
          "indexed": false,
          "name": "_amount",
          "type": "uint256"
        }
      ],
      "name": "Approval",
      "type": "event"
    },
    {
      "constant": false,
      "inputs": [
        {
          "name": "_to",
          "type": "address"
        },
        {
          "name": "_amount",
          "type": "uint256"
        }
      ],
      "name": "transfer",
      "outputs": [
        {
          "name": "success",
          "type": "bool"
        }
      ],
      "payable": false,
      "stateMutability": "nonpayable",
      "type": "function"
    },
    {
      "constant": false,
      "inputs": [
        {
          "name": "_from",
          "type": "address"
        },
        {
          "name": "_to",
          "type": "address"
        },
        {
          "name": "_amount",
          "type": "uint256"
        }
      ],
      "name": "transferFrom",
      "outputs": [
        {
          "name": "success",
          "type": "bool"
        }
      ],
      "payable": false,
      "stateMutability": "nonpayable",
      "type": "function"
    },
    {
      "constant": true,
      "inputs": [
        {
          "name": "_owner",
          "type": "address"
        }
      ],
      "name": "balanceOf",
      "outputs": [
        {
          "name": "balance",
          "type": "uint256"
        }
      ],
      "payable": false,
      "stateMutability": "view",
      "type": "function"
    },
    {
      "constant": false,
      "inputs": [
        {
          "name": "_spender",
          "type": "address"
        },
        {
          "name": "_amount",
          "type": "uint256"
        }
      ],
      "name": "approve",
      "outputs": [
        {
          "name": "success",
          "type": "bool"
        }
      ],
      "payable": false,
      "stateMutability": "nonpayable",
      "type": "function"
    },
    {
      "constant": true,
      "inputs": [
        {
          "name": "_owner",
          "type": "address"
        },
        {
          "name": "_spender",
          "type": "address"
        }
      ],
      "name": "allowance",
      "outputs": [
        {
          "name": "remaining",
          "type": "uint256"
        }
      ],
      "payable": false,
      "stateMutability": "view",
      "type": "function"
    },
    {
      "constant": false,
      "inputs": [
        {
          "name": "_spender",
          "type": "address"
        },
        {
          "name": "_amount",
          "type": "uint256"
        },
        {
          "name": "_extraData",
          "type": "bytes"
        }
      ],
      "name": "approveAndCall",
      "outputs": [
        {
          "name": "success",
          "type": "bool"
        }
      ],
      "payable": false,
      "stateMutability": "nonpayable",
      "type": "function"
    },
    {
      "constant": true,
      "inputs": [],
      "name": "totalSupply",
      "outputs": [
        {
          "name": "",
          "type": "uint256"
        }
      ],
      "payable": false,
      "stateMutability": "view",
      "type": "function"
    },
    {
      "constant": true,
      "inputs": [
        {
          "name": "_owner",
          "type": "address"
        },
        {
          "name": "_blockNumber",
          "type": "uint256"
        }
      ],
      "name": "balanceOfAt",
      "outputs": [
        {
          "name": "",
          "type": "uint256"
        }
      ],
      "payable": false,
      "stateMutability": "view",
      "type": "function"
    },
    {
      "constant": true,
      "inputs": [
        {
          "name": "_blockNumber",
          "type": "uint256"
        }
      ],
      "name": "totalSupplyAt",
      "outputs": [
        {
          "name": "",
          "type": "uint256"
        }
      ],
      "payable": false,
      "stateMutability": "view",
      "type": "function"
    }
  ],
  "bytecode": "0x60c0604052600760808190527f4754545f302e310000000000000000000000000000000000000000000000000060a0908152620000409160039190620001a8565b503480156200004e57600080fd5b506040516200119138038062001191833981810160405260c08110156200007457600080fd5b81516020830151604084018051929491938201926401000000008111156200009b57600080fd5b82016020810184811115620000af57600080fd5b8151640100000000811182820187101715620000ca57600080fd5b50506020820151604090920180519194929391640100000000811115620000f057600080fd5b820160208101848111156200010457600080fd5b81516401000000008111828201871017156200011f57600080fd5b505060209182015186519194509250620001409160009190870190620001a8565b506001805460ff191660ff8516179055815162000165906002906020850190620001a8565b50600480546001600160a01b0319166001600160a01b039790971696909617909555505050600555600a805460ff1916911515919091179055436006556200024d565b828054600181600116156101000203166002900490600052602060002090601f016020900481019282601f10620001eb57805160ff19168380011785556200021b565b828001600101855582156200021b579182015b828111156200021b578251825591602001919060010190620001fe565b50620002299291506200022d565b5090565b6200024a91905b8082111562000229576000815560010162000234565b90565b610f34806200025d6000396000f3fe6080604052600436106100fe5760003560e01c806370a0823111610095578063a9059cbb11610064578063a9059cbb146103a7578063bef97c87146103e0578063c5bcc4f1146103f5578063cae9ca511461040a578063dd62ed3e146104d2576100fe565b806370a082311461030457806380a540011461033757806395d89b4114610368578063981b24d01461037d576100fe565b806323b872dd116100d157806323b872dd14610248578063313ce5671461028b5780634ee2cd7e146102b657806354fd4d50146102ef576100fe565b806306fdde0314610135578063095ea7b3146101bf578063176345141461020c57806318160ddd14610233575b60405162461bcd60e51b8152600401808060200182810382526026815260200180610eda6026913960400191505060405180910390fd5b34801561014157600080fd5b5061014a61050d565b6040805160208082528351818301528351919283929083019185019080838360005b8381101561018457818101518382015260200161016c565b50505050905090810190601f1680156101b15780820380516001836020036101000a031916815260200191505b509250505060405180910390f35b3480156101cb57600080fd5b506101f8600480360360408110156101e257600080fd5b506001600160a01b03813516906020013561059b565b604080519115158252519081900360200190f35b34801561021857600080fd5b5061022161064c565b60408051918252519081900360200190f35b34801561023f57600080fd5b50610221610652565b34801561025457600080fd5b506101f86004803603606081101561026b57600080fd5b506001600160a01b03813581169160208101359091169060400135610663565b34801561029757600080fd5b506102a06106e7565b6040805160ff9092168252519081900360200190f35b3480156102c257600080fd5b50610221600480360360408110156102d957600080fd5b506001600160a01b0381351690602001356106f0565b3480156102fb57600080fd5b5061014a610836565b34801561031057600080fd5b506102216004803603602081101561032757600080fd5b50356001600160a01b0316610891565b34801561034357600080fd5b5061034c6108a5565b604080516001600160a01b039092168252519081900360200190f35b34801561037457600080fd5b5061014a6108b4565b34801561038957600080fd5b50610221600480360360208110156103a057600080fd5b503561090c565b3480156103b357600080fd5b506101f8600480360360408110156103ca57600080fd5b506001600160a01b0381351690602001356109f9565b3480156103ec57600080fd5b506101f8610a16565b34801561040157600080fd5b50610221610a1f565b34801561041657600080fd5b506101f86004803603606081101561042d57600080fd5b6001600160a01b038235169160208101359181019060608101604082013564010000000081111561045d57600080fd5b82018360208201111561046f57600080fd5b8035906020019184600183028401116401000000008311171561049157600080fd5b91908080601f016020809104026020016040519081016040528093929190818152602001838380828437600092019190915250929550610a25945050505050565b3480156104de57600080fd5b50610221600480360360408110156104f557600080fd5b506001600160a01b0381358116916020013516610b25565b6000805460408051602060026001851615610100026000190190941693909304601f810184900484028201840190925281815292918301828280156105935780601f1061056857610100808354040283529160200191610593565b820191906000526020600020905b81548152906001019060200180831161057657829003601f168201915b505050505081565b600a5460009060ff166105ad57600080fd5b8115806105db57503360009081526008602090815260408083206001600160a01b0387168452909152902054155b6105e457600080fd5b3360008181526008602090815260408083206001600160a01b03881680855290835292819020869055805186815290519293927f8c5be1e5ebec7d5bd14f71427d1e84f3dd0314c0f7b2291e5b200ac8c7c3b925929181900390910190a35060015b92915050565b60065481565b600061065d4361090c565b90505b90565b600a5460009060ff1661067557600080fd5b6001600160a01b03841660009081526008602090815260408083203384529091529020548211156106a8575060006106e0565b6001600160a01b03841660009081526008602090815260408083203384529091529020805483900390556106dd848484610b50565b90505b9392505050565b60015460ff1681565b6001600160a01b038216600090815260076020526040812054158061074a57506001600160a01b0383166000908152600760205260408120805484929061073357fe5b6000918252602090912001546001600160801b0316115b1561080d576004546001600160a01b031615610805576004546005546001600160a01b0390911690634ee2cd7e908590610785908690610c73565b6040518363ffffffff1660e01b815260040180836001600160a01b03166001600160a01b031681526020018281526020019250505060206040518083038186803b1580156107d257600080fd5b505afa1580156107e6573d6000803e3d6000fd5b505050506040513d60208110156107fc57600080fd5b50519050610646565b506000610646565b6001600160a01b038316600090815260076020526040902061082f9083610c89565b9050610646565b6003805460408051602060026001851615610100026000190190941693909304601f810184900484028201840190925281815292918301828280156105935780601f1061056857610100808354040283529160200191610593565b600061089d82436106f0565b90505b919050565b6004546001600160a01b031681565b6002805460408051602060018416156101000260001901909316849004601f810184900484028201840190925281815292918301828280156105935780601f1061056857610100808354040283529160200191610593565b600954600090158061093f575081600960008154811061092857fe5b6000918252602090912001546001600160801b0316115b156109e7576004546001600160a01b0316156109df576004546005546001600160a01b039091169063981b24d090610978908590610c73565b6040518263ffffffff1660e01b81526004018082815260200191505060206040518083038186803b1580156109ac57600080fd5b505afa1580156109c0573d6000803e3d6000fd5b505050506040513d60208110156109d657600080fd5b505190506108a0565b5060006108a0565b6109f2600983610c89565b90506108a0565b600a5460009060ff16610a0b57600080fd5b6106e0338484610b50565b600a5460ff1681565b60055481565b6000610a31848461059b565b610a3a57600080fd5b604051638f4ffcb160e01b815233600482018181526024830186905230604484018190526080606485019081528651608486015286516001600160a01b038a1695638f4ffcb195948a94938a939192909160a490910190602085019080838360005b83811015610ab4578181015183820152602001610a9c565b50505050905090810190601f168015610ae15780820380516001836020036101000a031916815260200191505b5095505050505050600060405180830381600087803b158015610b0357600080fd5b505af1158015610b17573d6000803e3d6000fd5b506001979650505050505050565b6001600160a01b03918216600090815260086020908152604080832093909416825291909152205490565b600081610b5f575060016106e0565b4360055410610b6d57600080fd5b6001600160a01b03831615801590610b8e57506001600160a01b0383163014155b610b9757600080fd5b6000610ba385436106f0565b905082811015610bb75760009150506106e0565b6001600160a01b0385166000908152600760205260409020610bdb90848303610db9565b6000610be785436106f0565b9050808482011015610bf857600080fd5b6001600160a01b0385166000908152600760205260409020610c1c90828601610db9565b846001600160a01b0316866001600160a01b03167fddf252ad1be2c89b69c2b068fc378daa952ba7f163c4a11628f55a4df523b3ef866040518082815260200191505060405180910390a350600195945050505050565b6000818310610c8257816106e0565b5090919050565b8154600090610c9a57506000610646565b825483906000198101908110610cac57fe5b6000918252602090912001546001600160801b03168210610cfc57825483906000198101908110610cd957fe5b600091825260209091200154600160801b90046001600160801b03169050610646565b82600081548110610d0957fe5b6000918252602090912001546001600160801b0316821015610d2d57506000610646565b8254600090600019015b81811115610d88576000600260018385010104905084868281548110610d5957fe5b6000918252602090912001546001600160801b031611610d7b57809250610d82565b6001810391505b50610d37565b848281548110610d9457fe5b600091825260209091200154600160801b90046001600160801b031695945050505050565b81541580610ded57508154439083906000198101908110610dd657fe5b6000918252602090912001546001600160801b0316105b15610e545781546000908390610e068260018301610e92565b81548110610e1057fe5b600091825260209091200180546001600160801b03848116600160801b024382166fffffffffffffffffffffffffffffffff19909316929092171617905550610e8e565b815460009083906000198101908110610e6957fe5b600091825260209091200180546001600160801b03808516600160801b029116179055505b5050565b815481835581811115610eb657600083815260209020610eb6918101908301610ebb565b505050565b61066091905b80821115610ed55760008155600101610ec1565b509056fe63616e6e6f74207472616e7366657220657468657220746f207468697320636f6e7472616374a265627a7a7230582039ea4c0f014a0c9a2d06ba48056a0ee3b048a54225ae52c4e2b023891365483d64736f6c634300050a0032",
  "source": "pragma solidity >=0.4.21 <0.6.0;\n\ncontract ApproveAndCallFallBack {\n    function receiveApproval(\n        address from,\n        uint256 _amount,\n        address _token,\n        bytes memory _data\n    ) public;\n}\n\ncontract ERC20Base {\n    string public name;                //The Token's name: e.g. GTToken\n    uint8 public decimals;             //Number of decimals of the smallest unit\n    string public symbol;              //An identifier: e.g. REP\n    string public version = \"GTT_0.1\"; //An arbitrary versioning scheme\n\n////////////////\n// Events\n////////////////\n    event Transfer(address indexed _from, address indexed _to, uint256 _amount);\n    event Approval(\n        address indexed _owner,\n        address indexed _spender,\n        uint256 _amount\n        );\n\n    /// @dev `Checkpoint` is the structure that attaches a block number to a\n    ///  given value, the block number attached is the one that last changed the\n    ///  value\n    struct Checkpoint {\n        // `fromBlock` is the block number that the value was generated from\n        uint128 fromBlock;\n        // `value` is the amount of tokens at a specific block number\n        uint128 value;\n    }\n\n    // `parentToken` is the Token address that was cloned to produce this token;\n    //  it will be 0x0 for a token that was not cloned\n    ERC20Base public parentToken;\n\n    // `parentSnapShotBlock` is the block number from the Parent Token that was\n    //  used to determine the initial distribution of the Clone Token\n    uint public parentSnapShotBlock;\n\n    // `creationBlock` is the block number that the Clone Token was created\n    uint public creationBlock;\n\n    // `balances` is the map that tracks the balance of each address, in this\n    //  contract when the balance changes the block number that the change\n    //  occurred is also included in the map\n    mapping (address => Checkpoint[]) balances;\n\n    // `allowed` tracks any extra transfer rights as in all ERC20 tokens\n    mapping (address => mapping (address => uint256)) allowed;\n\n    // Tracks the history of the `totalSupply` of the token\n    Checkpoint[] totalSupplyHistory;\n\n    // Flag that determines if the token is transferable or not.\n    bool public transfersEnabled;\n\n////////////////\n// Constructor\n////////////////\n\n    /// @notice Constructor to create a ERC20Base\n    /// @param _parentToken Address of the parent token, set to 0x0 if it is a\n    ///  new token\n    /// @param _parentSnapShotBlock Block of the parent token that will\n    ///  determine the initial distribution of the clone token, set to 0 if it\n    ///  is a new token\n    /// @param _tokenName Name of the new token\n    /// @param _decimalUnits Number of decimals of the new token\n    /// @param _tokenSymbol Token Symbol for the new token\n    /// @param _transfersEnabled If true, tokens will be able to be transferred\n    constructor(\n        ERC20Base _parentToken,\n        uint _parentSnapShotBlock,\n        string memory _tokenName,\n        uint8 _decimalUnits,\n        string memory _tokenSymbol,\n        bool _transfersEnabled\n    )  public\n    {\n        name = _tokenName;                                 // Set the name\n        decimals = _decimalUnits;                          // Set the decimals\n        symbol = _tokenSymbol;                             // Set the symbol\n        parentToken = _parentToken;\n        parentSnapShotBlock = _parentSnapShotBlock;\n        transfersEnabled = _transfersEnabled;\n        creationBlock = block.number;\n    }\n\n\n///////////////////\n// ERC20 Methods\n///////////////////\n\n    /// @notice Send `_amount` tokens to `_to` from `msg.sender`\n    /// @param _to The address of the recipient\n    /// @param _amount The amount of tokens to be transferred\n    /// @return Whether the transfer was successful or not\n    function transfer(address _to, uint256 _amount) public returns (bool success) {\n        require(transfersEnabled);\n        return doTransfer(msg.sender, _to, _amount);\n    }\n\n    /// @notice Send `_amount` tokens to `_to` from `_from` on the condition it\n    ///  is approved by `_from`\n    /// @param _from The address holding the tokens being transferred\n    /// @param _to The address of the recipient\n    /// @param _amount The amount of tokens to be transferred\n    /// @return True if the transfer was successful\n    function transferFrom(address _from, address _to, uint256 _amount) public returns (bool success) {\n        require(transfersEnabled);\n\n        // The standard ERC 20 transferFrom functionality\n        if (allowed[_from][msg.sender] < _amount)\n            return false;\n        allowed[_from][msg.sender] -= _amount;\n        return doTransfer(_from, _to, _amount);\n    }\n\n    /// @dev This is the actual transfer function in the token contract, it can\n    ///  only be called by other functions in this contract.\n    /// @param _from The address holding the tokens being transferred\n    /// @param _to The address of the recipient\n    /// @param _amount The amount of tokens to be transferred\n    /// @return True if the transfer was successful\n    function doTransfer(address _from, address _to, uint _amount) internal returns(bool) {\n        if (_amount == 0) {\n            return true;\n        }\n        require(parentSnapShotBlock < block.number);\n        // Do not allow transfer to 0x0 or the token contract itself\n        require((_to != address(0)) && (_to != address(this)));\n        // If the amount being transfered is more than the balance of the\n        //  account the transfer returns false\n        uint256 previousBalanceFrom = balanceOfAt(_from, block.number);\n        if (previousBalanceFrom < _amount) {\n            return false;\n        }\n        // First update the balance array with the new value for the address\n        //  sending the tokens\n        updateValueAtNow(balances[_from], previousBalanceFrom - _amount);\n        // Then update the balance array with the new value for the address\n        //  receiving the tokens\n        uint256 previousBalanceTo = balanceOfAt(_to, block.number);\n        require(previousBalanceTo + _amount >= previousBalanceTo); // Check for overflow\n        updateValueAtNow(balances[_to], previousBalanceTo + _amount);\n        // An event to make the transfer easy to find on the blockchain\n        emit Transfer(_from, _to, _amount);\n        return true;\n    }\n\n    /// @param _owner The address that's balance is being requested\n    /// @return The balance of `_owner` at the current block\n    function balanceOf(address _owner) public view returns (uint256 balance) {\n        return balanceOfAt(_owner, block.number);\n    }\n\n    /// @notice `msg.sender` approves `_spender` to spend `_amount` tokens on\n    ///  its behalf. This is a modified version of the ERC20 approve function\n    ///  to be a little bit safer\n    /// @param _spender The address of the account able to transfer the tokens\n    /// @param _amount The amount of tokens to be approved for transfer\n    /// @return True if the approval was successful\n    function approve(address _spender, uint256 _amount) public returns (bool success) {\n        require(transfersEnabled);\n\n        // To change the approve amount you first have to reduce the addresses`\n        //  allowance to zero by calling `approve(_spender,0)` if it is not\n        //  already 0 to mitigate the race condition described here:\n        //  https://github.com/ethereum/EIPs/issues/20#issuecomment-263524729\n        require((_amount == 0) || (allowed[msg.sender][_spender] == 0));\n\n        allowed[msg.sender][_spender] = _amount;\n        emit Approval(msg.sender, _spender, _amount);\n        return true;\n    }\n\n    /// @dev This function makes it easy to read the `allowed[]` map\n    /// @param _owner The address of the account that owns the token\n    /// @param _spender The address of the account able to transfer the tokens\n    /// @return Amount of remaining tokens of _owner that _spender is allowed\n    ///  to spend\n    function allowance(address _owner, address _spender) public view returns (uint256 remaining) {\n        return allowed[_owner][_spender];\n    }\n\n    /// @notice `msg.sender` approves `_spender` to send `_amount` tokens on\n    ///  its behalf, and then a function is triggered in the contract that is\n    ///  being approved, `_spender`. This allows users to use their tokens to\n    ///  interact with contracts in one function call instead of two\n    /// @param _spender The address of the contract able to transfer the tokens\n    /// @param _amount The amount of tokens to be approved for transfer\n    /// @return True if the function call was successful\n    function approveAndCall(ApproveAndCallFallBack _spender, uint256 _amount, bytes memory _extraData) public returns (bool success) {\n        require(approve(address(_spender), _amount));\n\n        _spender.receiveApproval(\n            msg.sender,\n            _amount,\n            address(this),\n            _extraData\n        );\n\n        return true;\n    }\n\n    /// @dev This function makes it easy to get the total number of tokens\n    /// @return The total number of tokens\n    function totalSupply() public view returns (uint) {\n        return totalSupplyAt(block.number);\n    }\n\n\n////////////////\n// Query balance and totalSupply in History\n////////////////\n\n    /// @dev Queries the balance of `_owner` at a specific `_blockNumber`\n    /// @param _owner The address from which the balance will be retrieved\n    /// @param _blockNumber The block number when the balance is queried\n    /// @return The balance at `_blockNumber`\n    function balanceOfAt(address _owner, uint _blockNumber) public view returns (uint) {\n\n        // These next few lines are used when the balance of the token is\n        //  requested before a check point was ever created for this token, it\n        //  requires that the `parentToken.balanceOfAt` be queried at the\n        //  genesis block for that token as this contains initial balance of\n        //  this token\n        if ((balances[_owner].length == 0) || (balances[_owner][0].fromBlock > _blockNumber)) {\n            if (address(parentToken) != address(0)) {\n                return parentToken.balanceOfAt(_owner, min(_blockNumber, parentSnapShotBlock));\n            } else {\n                // Has no parent\n                return 0;\n            }\n\n        // This will return the expected balance during normal situations\n        } else {\n            return getValueAt(balances[_owner], _blockNumber);\n        }\n    }\n\n    /// @notice Total amount of tokens at a specific `_blockNumber`.\n    /// @param _blockNumber The block number when the totalSupply is queried\n    /// @return The total amount of tokens at `_blockNumber`\n    function totalSupplyAt(uint _blockNumber) public view returns(uint) {\n\n        // These next few lines are used when the totalSupply of the token is\n        //  requested before a check point was ever created for this token, it\n        //  requires that the `parentToken.totalSupplyAt` be queried at the\n        //  genesis block for this token as that contains totalSupply of this\n        //  token at this block number.\n        if ((totalSupplyHistory.length == 0) || (totalSupplyHistory[0].fromBlock > _blockNumber)) {\n            if (address(parentToken) != address(0)) {\n                return parentToken.totalSupplyAt(min(_blockNumber, parentSnapShotBlock));\n            } else {\n                return 0;\n            }\n\n        // This will return the expected totalSupply during normal situations\n        } else {\n            return getValueAt(totalSupplyHistory, _blockNumber);\n        }\n    }\n\n////////////////\n// Generate and destroy tokens\n////////////////\n\n    /// @notice Generates `_amount` tokens that are assigned to `_owner`\n    /// @param _owner The address that will be assigned the new tokens\n    /// @param _amount The quantity of tokens generated\n    /// @return True if the tokens are generated correctly\n    function _generateTokens(address _owner, uint _amount) internal returns (bool) {\n        uint curTotalSupply = totalSupply();\n        require(curTotalSupply + _amount >= curTotalSupply); // Check for overflow\n        uint previousBalanceTo = balanceOf(_owner);\n        require(previousBalanceTo + _amount >= previousBalanceTo); // Check for overflow\n        updateValueAtNow(totalSupplyHistory, curTotalSupply + _amount);\n        updateValueAtNow(balances[_owner], previousBalanceTo + _amount);\n        emit Transfer(address(0), _owner, _amount);\n        return true;\n    }\n\n\n    /// @notice Burns `_amount` tokens from `_owner`\n    /// @param _owner The address that will lose the tokens\n    /// @param _amount The quantity of tokens to burn\n    /// @return True if the tokens are burned correctly\n    function _destroyTokens(address _owner, uint _amount) internal returns (bool) {\n        uint curTotalSupply = totalSupply();\n        require(curTotalSupply >= _amount);\n        uint previousBalanceFrom = balanceOf(_owner);\n        require(previousBalanceFrom >= _amount);\n        updateValueAtNow(totalSupplyHistory, curTotalSupply - _amount);\n        updateValueAtNow(balances[_owner], previousBalanceFrom - _amount);\n        emit Transfer(_owner, address(0), _amount);\n        return true;\n    }\n\n////////////////\n// Enable tokens transfers\n////////////////\n\n\n    /// @notice Enables token holders to transfer their tokens freely if true\n    /// @param _transfersEnabled True if transfers are allowed in the clone\n    function _enableTransfers(bool _transfersEnabled) internal {\n        transfersEnabled = _transfersEnabled;\n    }\n\n////////////////\n// Internal helper functions to query and set a value in a snapshot array\n////////////////\n\n    /// @dev `getValueAt` retrieves the number of tokens at a given block number\n    /// @param checkpoints The history of values being queried\n    /// @param _block The block number to retrieve the value at\n    /// @return The number of tokens being queried\n    function getValueAt(Checkpoint[] storage checkpoints, uint _block) internal view returns (uint) {\n        if (checkpoints.length == 0)\n            return 0;\n\n        // Shortcut for the actual value\n        if (_block >= checkpoints[checkpoints.length-1].fromBlock)\n            return checkpoints[checkpoints.length-1].value;\n        if (_block < checkpoints[0].fromBlock)\n            return 0;\n\n        // Binary search of the value in the array\n        uint min = 0;\n        uint max = checkpoints.length-1;\n        while (max > min) {\n            uint mid = (max + min + 1) / 2;\n            if (checkpoints[mid].fromBlock<=_block) {\n                min = mid;\n            } else {\n                max = mid-1;\n            }\n        }\n        return checkpoints[min].value;\n    }\n\n    /// @dev `updateValueAtNow` used to update the `balances` map and the\n    ///  `totalSupplyHistory`\n    /// @param checkpoints The history of data being updated\n    /// @param _value The new number of tokens\n    function updateValueAtNow(Checkpoint[] storage checkpoints, uint _value) internal {\n        if ((checkpoints.length == 0) || (checkpoints[checkpoints.length - 1].fromBlock < block.number)) {\n            Checkpoint storage newCheckPoint = checkpoints[checkpoints.length++];\n            newCheckPoint.fromBlock = uint128(block.number);\n            newCheckPoint.value = uint128(_value);\n        } else {\n            Checkpoint storage oldCheckPoint = checkpoints[checkpoints.length - 1];\n            oldCheckPoint.value = uint128(_value);\n        }\n    }\n\n    /// @dev Helper function to return a min betwen the two uints\n    function min(uint a, uint b) pure internal returns (uint) {\n        return a < b ? a : b;\n    }\n\n    function () external payable {\n        require(false, \"cannot transfer ether to this contract\");\n    }\n}\n",
  "sourcePath": "/Users/xuepeng/git/gttoken-contract/contracts/ERC20Impl.sol",
  "compiler": {
    "name": "solc",
    "version": "0.5.10+commit.5a6ea5b1.Emscripten.clang"
  },
  "schemaVersion": "3.0.11",
  "updatedAt": "2019-10-27T15:43:45.469Z",
  "devdoc": {
    "methods": {
      "allowance(address,address)": {
        "details": "This function makes it easy to read the `allowed[]` map",
        "params": {
          "_owner": "The address of the account that owns the token",
          "_spender": "The address of the account able to transfer the tokens"
        },
        "return": "Amount of remaining tokens of _owner that _spender is allowed  to spend"
      },
      "approve(address,uint256)": {
        "params": {
          "_amount": "The amount of tokens to be approved for transfer",
          "_spender": "The address of the account able to transfer the tokens"
        },
        "return": "True if the approval was successful"
      },
      "approveAndCall(address,uint256,bytes)": {
        "params": {
          "_amount": "The amount of tokens to be approved for transfer",
          "_spender": "The address of the contract able to transfer the tokens"
        },
        "return": "True if the function call was successful"
      },
      "balanceOf(address)": {
        "params": {
          "_owner": "The address that's balance is being requested"
        },
        "return": "The balance of `_owner` at the current block"
      },
      "balanceOfAt(address,uint256)": {
        "details": "Queries the balance of `_owner` at a specific `_blockNumber`",
        "params": {
          "_blockNumber": "The block number when the balance is queried",
          "_owner": "The address from which the balance will be retrieved"
        },
        "return": "The balance at `_blockNumber`"
      },
      "constructor": {
        "params": {
          "_decimalUnits": "Number of decimals of the new token",
          "_parentSnapShotBlock": "Block of the parent token that will  determine the initial distribution of the clone token, set to 0 if it  is a new token",
          "_parentToken": "Address of the parent token, set to 0x0 if it is a  new token",
          "_tokenName": "Name of the new token",
          "_tokenSymbol": "Token Symbol for the new token",
          "_transfersEnabled": "If true, tokens will be able to be transferred"
        }
      },
      "totalSupply()": {
        "details": "This function makes it easy to get the total number of tokens",
        "return": "The total number of tokens"
      },
      "totalSupplyAt(uint256)": {
        "params": {
          "_blockNumber": "The block number when the totalSupply is queried"
        },
        "return": "The total amount of tokens at `_blockNumber`"
      },
      "transfer(address,uint256)": {
        "params": {
          "_amount": "The amount of tokens to be transferred",
          "_to": "The address of the recipient"
        },
        "return": "Whether the transfer was successful or not"
      },
      "transferFrom(address,address,uint256)": {
        "params": {
          "_amount": "The amount of tokens to be transferred",
          "_from": "The address holding the tokens being transferred",
          "_to": "The address of the recipient"
        },
        "return": "True if the transfer was successful"
      }
    }
  },
  "userdoc": {
    "methods": {
      "approve(address,uint256)": {
        "notice": "`msg.sender` approves `_spender` to spend `_amount` tokens on  its behalf. This is a modified version of the ERC20 approve function  to be a little bit safer"
      },
      "approveAndCall(address,uint256,bytes)": {
        "notice": "`msg.sender` approves `_spender` to send `_amount` tokens on  its behalf, and then a function is triggered in the contract that is  being approved, `_spender`. This allows users to use their tokens to  interact with contracts in one function call instead of two"
      },
      "balanceOfAt(address,uint256)": {
        "notice": "/////////////"
      },
      "constructor": "/////////////Constructor to create a ERC20Base",
      "totalSupplyAt(uint256)": {
        "notice": "Total amount of tokens at a specific `_blockNumber`."
      },
      "transfer(address,uint256)": {
        "notice": "////////////////Send `_amount` tokens to `_to` from `msg.sender`"
      },
      "transferFrom(address,address,uint256)": {
        "notice": "Send `_amount` tokens to `_to` from `_from` on the condition it  is approved by `_from`"
      }
    }
  }
}