{
  "contractName": "GTToken",
  "abi": [
    {
      "constant": true,
      "inputs": [],
      "name": "name",
      "outputs": [
        {
          "name": "",
          "type": "string"
        }
      ],
      "payable": false,
      "stateMutability": "view",
      "type": "function"
    },
    {
      "constant": false,
      "inputs": [
        {
          "name": "_spender",
          "type": "address"
        },
        {
          "name": "_amount",
          "type": "uint256"
        }
      ],
      "name": "approve",
      "outputs": [
        {
          "name": "success",
          "type": "bool"
        }
      ],
      "payable": false,
      "stateMutability": "nonpayable",
      "type": "function"
    },
    {
      "constant": true,
      "inputs": [],
      "name": "list",
      "outputs": [
        {
          "name": "",
          "type": "address"
        }
      ],
      "payable": false,
      "stateMutability": "view",
      "type": "function"
    },
    {
      "constant": false,
      "inputs": [
        {
          "name": "id",
          "type": "uint64"
        },
        {
          "name": "_contract",
          "type": "address"
        }
      ],
      "name": "transfer_multisig",
      "outputs": [],
      "payable": false,
      "stateMutability": "nonpayable",
      "type": "function"
    },
    {
      "constant": true,
      "inputs": [],
      "name": "creationBlock",
      "outputs": [
        {
          "name": "",
          "type": "uint256"
        }
      ],
      "payable": false,
      "stateMutability": "view",
      "type": "function"
    },
    {
      "constant": true,
      "inputs": [],
      "name": "totalSupply",
      "outputs": [
        {
          "name": "",
          "type": "uint256"
        }
      ],
      "payable": false,
      "stateMutability": "view",
      "type": "function"
    },
    {
      "constant": false,
      "inputs": [
        {
          "name": "_from",
          "type": "address"
        },
        {
          "name": "_to",
          "type": "address"
        },
        {
          "name": "_amount",
          "type": "uint256"
        }
      ],
      "name": "transferFrom",
      "outputs": [
        {
          "name": "success",
          "type": "bool"
        }
      ],
      "payable": false,
      "stateMutability": "nonpayable",
      "type": "function"
    },
    {
      "constant": true,
      "inputs": [],
      "name": "decimals",
      "outputs": [
        {
          "name": "",
          "type": "uint8"
        }
      ],
      "payable": false,
      "stateMutability": "view",
      "type": "function"
    },
    {
      "constant": true,
      "inputs": [
        {
          "name": "_owner",
          "type": "address"
        },
        {
          "name": "_blockNumber",
          "type": "uint256"
        }
      ],
      "name": "balanceOfAt",
      "outputs": [
        {
          "name": "",
          "type": "uint256"
        }
      ],
      "payable": false,
      "stateMutability": "view",
      "type": "function"
    },
    {
      "constant": true,
      "inputs": [],
      "name": "version",
      "outputs": [
        {
          "name": "",
          "type": "string"
        }
      ],
      "payable": false,
      "stateMutability": "view",
      "type": "function"
    },
    {
      "constant": true,
      "inputs": [],
      "name": "multisig_contract",
      "outputs": [
        {
          "name": "",
          "type": "address"
        }
      ],
      "payable": false,
      "stateMutability": "view",
      "type": "function"
    },
    {
      "constant": true,
      "inputs": [
        {
          "name": "_owner",
          "type": "address"
        }
      ],
      "name": "balanceOf",
      "outputs": [
        {
          "name": "balance",
          "type": "uint256"
        }
      ],
      "payable": false,
      "stateMutability": "view",
      "type": "function"
    },
    {
      "constant": true,
      "inputs": [],
      "name": "parentToken",
      "outputs": [
        {
          "name": "",
          "type": "address"
        }
      ],
      "payable": false,
      "stateMutability": "view",
      "type": "function"
    },
    {
      "constant": true,
      "inputs": [],
      "name": "symbol",
      "outputs": [
        {
          "name": "",
          "type": "string"
        }
      ],
      "payable": false,
      "stateMutability": "view",
      "type": "function"
    },
    {
      "constant": true,
      "inputs": [
        {
          "name": "_blockNumber",
          "type": "uint256"
        }
      ],
      "name": "totalSupplyAt",
      "outputs": [
        {
          "name": "",
          "type": "uint256"
        }
      ],
      "payable": false,
      "stateMutability": "view",
      "type": "function"
    },
    {
      "constant": false,
      "inputs": [
        {
          "name": "_to",
          "type": "address"
        },
        {
          "name": "_amount",
          "type": "uint256"
        }
      ],
      "name": "transfer",
      "outputs": [
        {
          "name": "success",
          "type": "bool"
        }
      ],
      "payable": false,
      "stateMutability": "nonpayable",
      "type": "function"
    },
    {
      "constant": true,
      "inputs": [],
      "name": "transfersEnabled",
      "outputs": [
        {
          "name": "",
          "type": "bool"
        }
      ],
      "payable": false,
      "stateMutability": "view",
      "type": "function"
    },
    {
      "constant": true,
      "inputs": [],
      "name": "parentSnapShotBlock",
      "outputs": [
        {
          "name": "",
          "type": "uint256"
        }
      ],
      "payable": false,
      "stateMutability": "view",
      "type": "function"
    },
    {
      "constant": false,
      "inputs": [
        {
          "name": "_spender",
          "type": "address"
        },
        {
          "name": "_amount",
          "type": "uint256"
        },
        {
          "name": "_extraData",
          "type": "bytes"
        }
      ],
      "name": "approveAndCall",
      "outputs": [
        {
          "name": "success",
          "type": "bool"
        }
      ],
      "payable": false,
      "stateMutability": "nonpayable",
      "type": "function"
    },
    {
      "constant": true,
      "inputs": [
        {
          "name": "_owner",
          "type": "address"
        },
        {
          "name": "_spender",
          "type": "address"
        }
      ],
      "name": "allowance",
      "outputs": [
        {
          "name": "remaining",
          "type": "uint256"
        }
      ],
      "payable": false,
      "stateMutability": "view",
      "type": "function"
    },
    {
      "constant": true,
      "inputs": [],
      "name": "tokenFactory",
      "outputs": [
        {
          "name": "",
          "type": "address"
        }
      ],
      "payable": false,
      "stateMutability": "view",
      "type": "function"
    },
    {
      "inputs": [
        {
          "name": "_tokenFactory",
          "type": "address"
        },
        {
          "name": "_parentToken",
          "type": "address"
        },
        {
          "name": "_parentSnapShotBlock",
          "type": "uint256"
        },
        {
          "name": "_tokenName",
          "type": "string"
        },
        {
          "name": "_decimalUnits",
          "type": "uint8"
        },
        {
          "name": "_tokenSymbol",
          "type": "string"
        },
        {
          "name": "_transfersEnabled",
          "type": "bool"
        },
        {
          "name": "multisig",
          "type": "address"
        },
        {
          "name": "_tlist",
          "type": "address"
        }
      ],
      "payable": false,
      "stateMutability": "nonpayable",
      "type": "constructor"
    },
    {
      "payable": true,
      "stateMutability": "payable",
      "type": "fallback"
    },
    {
      "anonymous": false,
      "inputs": [
        {
          "indexed": true,
          "name": "_cloneToken",
          "type": "address"
        },
        {
          "indexed": false,
          "name": "_snapshotBlock",
          "type": "uint256"
        }
      ],
      "name": "NewCloneToken",
      "type": "event"
    },
    {
      "anonymous": false,
      "inputs": [
        {
          "indexed": true,
          "name": "_token",
          "type": "address"
        },
        {
          "indexed": true,
          "name": "_to",
          "type": "address"
        },
        {
          "indexed": false,
          "name": "_amount",
          "type": "uint256"
        }
      ],
      "name": "ClaimedTokens",
      "type": "event"
    },
    {
      "anonymous": false,
      "inputs": [
        {
          "indexed": false,
          "name": "_old",
          "type": "address"
        },
        {
          "indexed": false,
          "name": "_new",
          "type": "address"
        }
      ],
      "name": "TransferMultiSig",
      "type": "event"
    },
    {
      "anonymous": false,
      "inputs": [
        {
          "indexed": true,
          "name": "_from",
          "type": "address"
        },
        {
          "indexed": true,
          "name": "_to",
          "type": "address"
        },
        {
          "indexed": false,
          "name": "_amount",
          "type": "uint256"
        }
      ],
      "name": "Transfer",
      "type": "event"
    },
    {
      "anonymous": false,
      "inputs": [
        {
          "indexed": true,
          "name": "_owner",
          "type": "address"
        },
        {
          "indexed": true,
          "name": "_spender",
          "type": "address"
        },
        {
          "indexed": false,
          "name": "_amount",
          "type": "uint256"
        }
      ],
      "name": "Approval",
      "type": "event"
    },
    {
      "constant": false,
      "inputs": [
        {
          "name": "id",
          "type": "uint64"
        },
        {
          "name": "_token",
          "type": "address"
        },
        {
          "name": "to",
          "type": "address"
        }
      ],
      "name": "claimStdTokens",
      "outputs": [],
      "payable": false,
      "stateMutability": "nonpayable",
      "type": "function"
    },
    {
      "constant": false,
      "inputs": [
        {
          "name": "_cloneTokenName",
          "type": "string"
        },
        {
          "name": "_cloneDecimalUnits",
          "type": "uint8"
        },
        {
          "name": "_cloneTokenSymbol",
          "type": "string"
        },
        {
          "name": "_snapshotBlock",
          "type": "uint256"
        },
        {
          "name": "_transfersEnabled",
          "type": "bool"
        },
        {
          "name": "_multisig",
          "type": "address"
        },
        {
          "name": "_tlist",
          "type": "address"
        }
      ],
      "name": "createCloneToken",
      "outputs": [
        {
          "name": "",
          "type": "address"
        }
      ],
      "payable": false,
      "stateMutability": "nonpayable",
      "type": "function"
    },
    {
      "constant": false,
      "inputs": [
        {
          "name": "_owner",
          "type": "address"
        },
        {
          "name": "_amount",
          "type": "uint256"
        }
      ],
      "name": "generateTokens",
      "outputs": [
        {
          "name": "",
          "type": "bool"
        }
      ],
      "payable": false,
      "stateMutability": "nonpayable",
      "type": "function"
    },
    {
      "constant": false,
      "inputs": [
        {
          "name": "_owner",
          "type": "address"
        },
        {
          "name": "_amount",
          "type": "uint256"
        }
      ],
      "name": "destroyTokens",
      "outputs": [
        {
          "name": "",
          "type": "bool"
        }
      ],
      "payable": false,
      "stateMutability": "nonpayable",
      "type": "function"
    },
    {
      "constant": false,
      "inputs": [
        {
          "name": "id",
          "type": "uint64"
        },
        {
          "name": "_transfersEnabled",
          "type": "bool"
        }
      ],
      "name": "enableTransfers",
      "outputs": [],
      "payable": false,
      "stateMutability": "nonpayable",
      "type": "function"
    }
  ],
  "bytecode": "0x60c0604052600760808190527f4754545f302e310000000000000000000000000000000000000000000000000060a090815262000040916003919062000240565b503480156200004e57600080fd5b50604051620025333803806200253383398181016040526101208110156200007557600080fd5b8151602083015160408401516060850180519395929491939183019291640100000000811115620000a557600080fd5b82016020810184811115620000b957600080fd5b8151640100000000811182820187101715620000d457600080fd5b50506020820151604090920180519194929391640100000000811115620000fa57600080fd5b820160208101848111156200010e57600080fd5b81516401000000008111828201871017156200012957600080fd5b50506020808301516040840151606090940151885193965090945091829184918b918b918b918b918b918b9162000167916000919087019062000240565b506001805460ff191660ff851617905581516200018c90600290602085019062000240565b50600480546001600160a01b0319166001600160a01b039788161790556005949094555050600a805460ff19169215159290921790915550436006558116620001d457600080fd5b600a8054610100600160a81b0319166101006001600160a01b039384160217905581166200020157600080fd5b600b80546001600160a01b039283166001600160a01b031991821617909155600c80549b9092169a169990991790985550620002e59650505050505050565b828054600181600116156101000203166002900490600052602060002090601f016020900481019282601f106200028357805160ff1916838001178555620002b3565b82800160010185558215620002b3579182015b82811115620002b357825182559160200191906001019062000296565b50620002c1929150620002c5565b5090565b620002e291905b80821115620002c15760008155600101620002cc565b90565b61223e80620002f56000396000f3fe6080604052600436106101815760003560e01c806370a08231116100d1578063a9059cbb1161008a578063cae9ca5111610064578063cae9ca511461071f578063d3ce77fe146107e7578063dd62ed3e14610820578063e77772fe1461085b57610181565b8063a9059cbb146106bc578063bef97c87146106f5578063c5bcc4f11461070a57610181565b806370a08231146105c05780637642240d146105f357806380a540011461062f578063827f32c01461064457806395d89b411461067d578063981b24d01461069257610181565b806318160ddd1161013e578063313ce56711610118578063313ce567146105325780634ee2cd7e1461055d57806354fd4d50146105965780636ce5edff146105ab57610181565b806318160ddd1461037757806323b872dd1461038c5780632916d2be146103cf57610181565b806306fdde03146101ba578063095ea7b3146102445780630c3129fe146102915780630f560cd7146102dc57806310cb818c1461030d5780631763451414610350575b60405162461bcd60e51b81526004018080602001828103825260268152602001806121bd6026913960400191505060405180910390fd5b005b3480156101c657600080fd5b506101cf610870565b6040805160208082528351818301528351919283929083019185019080838360005b838110156102095781810151838201526020016101f1565b50505050905090810190601f1680156102365780820380516001836020036101000a031916815260200191505b509250505060405180910390f35b34801561025057600080fd5b5061027d6004803603604081101561026757600080fd5b506001600160a01b0381351690602001356108fe565b604080519115158252519081900360200190f35b34801561029d57600080fd5b506101b8600480360360608110156102b457600080fd5b5067ffffffffffffffff813516906001600160a01b03602082013581169160400135166109af565b3480156102e857600080fd5b506102f1610c26565b604080516001600160a01b039092168252519081900360200190f35b34801561031957600080fd5b506101b86004803603604081101561033057600080fd5b50803567ffffffffffffffff1690602001356001600160a01b0316610c35565b34801561035c57600080fd5b50610365610f22565b60408051918252519081900360200190f35b34801561038357600080fd5b50610365610f28565b34801561039857600080fd5b5061027d600480360360608110156103af57600080fd5b506001600160a01b03813581169160208101359091169060400135610f39565b3480156103db57600080fd5b506102f1600480360360e08110156103f257600080fd5b81019060208101813564010000000081111561040d57600080fd5b82018360208201111561041f57600080fd5b8035906020019184600183028401116401000000008311171561044157600080fd5b91908080601f016020809104026020016040519081016040528093929190818152602001838380828437600092019190915250929560ff85351695909490935060408101925060200135905064010000000081111561049f57600080fd5b8201836020820111156104b157600080fd5b803590602001918460018302840111640100000000831117156104d357600080fd5b91908080601f0160208091040260200160405190810160405280939291908181526020018383808284376000920191909152509295505082359350505060208101351515906001600160a01b0360408201358116916060013516610fbd565b34801561053e57600080fd5b506105476111e3565b6040805160ff9092168252519081900360200190f35b34801561056957600080fd5b506103656004803603604081101561058057600080fd5b506001600160a01b0381351690602001356111ec565b3480156105a257600080fd5b506101cf611332565b3480156105b757600080fd5b506102f161138d565b3480156105cc57600080fd5b50610365600480360360208110156105e357600080fd5b50356001600160a01b03166113a1565b3480156105ff57600080fd5b506101b86004803603604081101561061657600080fd5b5067ffffffffffffffff813516906020013515156113b5565b34801561063b57600080fd5b506102f1611624565b34801561065057600080fd5b5061027d6004803603604081101561066757600080fd5b506001600160a01b038135169060200135611633565b34801561068957600080fd5b506101cf611707565b34801561069e57600080fd5b50610365600480360360208110156106b557600080fd5b503561175f565b3480156106c857600080fd5b5061027d600480360360408110156106df57600080fd5b506001600160a01b03813516906020013561184c565b34801561070157600080fd5b5061027d611869565b34801561071657600080fd5b50610365611872565b34801561072b57600080fd5b5061027d6004803603606081101561074257600080fd5b6001600160a01b038235169160208101359181019060608101604082013564010000000081111561077257600080fd5b82018360208201111561078457600080fd5b803590602001918460018302840111640100000000831117156107a657600080fd5b91908080601f016020809104026020016040519081016040528093929190818152602001838380828437600092019190915250929550611878945050505050565b3480156107f357600080fd5b5061027d6004803603604081101561080a57600080fd5b506001600160a01b038135169060200135611978565b34801561082c57600080fd5b506103656004803603604081101561084357600080fd5b506001600160a01b0381358116916020013516611a44565b34801561086757600080fd5b506102f1611a6f565b6000805460408051602060026001851615610100026000190190941693909304601f810184900484028201840190925281815292918301828280156108f65780601f106108cb576101008083540402835291602001916108f6565b820191906000526020600020905b8154815290600101906020018083116108d957829003601f168201915b505050505081565b600a5460009060ff1661091057600080fd5b81158061093e57503360009081526008602090815260408083206001600160a01b0387168452909152902054155b61094757600080fd5b3360008181526008602090815260408083206001600160a01b03881680855290835292819020869055805186815290519293927f8c5be1e5ebec7d5bd14f71427d1e84f3dd0314c0f7b2291e5b200ac8c7c3b925929181900390910190a35060015b92915050565b600a5460408051629764fd60e61b815233600482015290516101009092046001600160a01b0316916325d93f4091602480820192602092909190829003018186803b1580156109fd57600080fd5b505afa158015610a11573d6000803e3d6000fd5b505050506040513d6020811015610a2757600080fd5b5051610a645760405162461bcd60e51b81526004018080602001828103825260278152602001806121e36027913960400191505060405180910390fd5b826040518060400160405280600e81526020016d636c61696d537464546f6b656e7360901b815250600080356001600160e01b03191660003660405160200180846001600160e01b0319166001600160e01b0319168152600401838380828437808301925050509350505050604051602081830303815290604052805190602001209050600a60019054906101000a90046001600160a01b03166001600160a01b031663d253eced848484336040518563ffffffff1660e01b8152600401808567ffffffffffffffff1667ffffffffffffffff16815260200180602001848152602001836001600160a01b03166001600160a01b03168152602001828103825285818151815260200191508051906020019080838360005b83811015610b94578181015183820152602001610b7c565b50505050905090810190601f168015610bc15780820380516001836020036101000a031916815260200191505b5095505050505050602060405180830381600087803b158015610be357600080fd5b505af1158015610bf7573d6000803e3d6000fd5b505050506040513d6020811015610c0d57600080fd5b505115610c1e57610c1e8585611a7e565b505050505050565b600b546001600160a01b031681565b600a5460408051629764fd60e61b815233600482015290516101009092046001600160a01b0316916325d93f4091602480820192602092909190829003018186803b158015610c8357600080fd5b505afa158015610c97573d6000803e3d6000fd5b505050506040513d6020811015610cad57600080fd5b5051610cea5760405162461bcd60e51b81526004018080602001828103825260278152602001806121e36027913960400191505060405180910390fd5b81604051806040016040528060118152602001707472616e736665725f6d756c746973696760781b815250600080356001600160e01b03191660003660405160200180846001600160e01b0319166001600160e01b0319168152600401838380828437808301925050509350505050604051602081830303815290604052805190602001209050600a60019054906101000a90046001600160a01b03166001600160a01b031663d253eced848484336040518563ffffffff1660e01b8152600401808567ffffffffffffffff1667ffffffffffffffff16815260200180602001848152602001836001600160a01b03166001600160a01b03168152602001828103825285818151815260200191508051906020019080838360005b83811015610e1d578181015183820152602001610e05565b50505050905090810190601f168015610e4a5780820380516001836020036101000a031916815260200191505b5095505050505050602060405180830381600087803b158015610e6c57600080fd5b505af1158015610e80573d6000803e3d6000fd5b505050506040513d6020811015610e9657600080fd5b505115610f1b576001600160a01b038416610eb057600080fd5b600a80546001600160a01b03868116610100818102610100600160a81b03198516179094556040805194909304919091168084526020840191909152815190927fd30bbf8c51d656e1f0bad4c64bc25c133cb2e626cf2791746b0f083b38ea3fdd92908290030190a1505b5050505050565b60065481565b6000610f334361175f565b90505b90565b600a5460009060ff16610f4b57600080fd5b6001600160a01b0384166000908152600860209081526040808320338452909152902054821115610f7e57506000610fb6565b6001600160a01b0384166000908152600860209081526040808320338452909152902080548390039055610fb3848484611cbb565b90505b9392505050565b6000808515610fcc5785610fd1565b600143035b90506000600c60009054906101000a90046001600160a01b03166001600160a01b03166347fac12d30848d8d8d8c8c8c6040518963ffffffff1660e01b815260040180896001600160a01b03166001600160a01b03168152602001888152602001806020018760ff1660ff1681526020018060200186151515158152602001856001600160a01b03166001600160a01b03168152602001846001600160a01b03166001600160a01b03168152602001838103835289818151815260200191508051906020019080838360005b838110156110b557818101518382015260200161109d565b50505050905090810190601f1680156110e25780820380516001836020036101000a031916815260200191505b50838103825287518152875160209182019189019080838360005b838110156111155781810151838201526020016110fd565b50505050905090810190601f1680156111425780820380516001836020036101000a031916815260200191505b509a5050505050505050505050602060405180830381600087803b15801561116957600080fd5b505af115801561117d573d6000803e3d6000fd5b505050506040513d602081101561119357600080fd5b50516040805184815290519192506001600160a01b038316917f086c875b377f900b07ce03575813022f05dd10ed7640b5282cf6d3c3fc352ade9181900360200190a29998505050505050505050565b60015460ff1681565b6001600160a01b038216600090815260076020526040812054158061124657506001600160a01b0383166000908152600760205260408120805484929061122f57fe5b6000918252602090912001546001600160801b0316115b15611309576004546001600160a01b031615611301576004546005546001600160a01b0390911690634ee2cd7e908590611281908690611dde565b6040518363ffffffff1660e01b815260040180836001600160a01b03166001600160a01b031681526020018281526020019250505060206040518083038186803b1580156112ce57600080fd5b505afa1580156112e2573d6000803e3d6000fd5b505050506040513d60208110156112f857600080fd5b505190506109a9565b5060006109a9565b6001600160a01b038316600090815260076020526040902061132b9083611df4565b90506109a9565b6003805460408051602060026001851615610100026000190190941693909304601f810184900484028201840190925281815292918301828280156108f65780601f106108cb576101008083540402835291602001916108f6565b600a5461010090046001600160a01b031681565b60006113ad82436111ec565b90505b919050565b600a5460408051629764fd60e61b815233600482015290516101009092046001600160a01b0316916325d93f4091602480820192602092909190829003018186803b15801561140357600080fd5b505afa158015611417573d6000803e3d6000fd5b505050506040513d602081101561142d57600080fd5b505161146a5760405162461bcd60e51b81526004018080602001828103825260278152602001806121e36027913960400191505060405180910390fd5b816040518060400160405280600f81526020016e656e61626c655472616e736665727360881b815250600080356001600160e01b03191660003660405160200180846001600160e01b0319166001600160e01b0319168152600401838380828437808301925050509350505050604051602081830303815290604052805190602001209050600a60019054906101000a90046001600160a01b03166001600160a01b031663d253eced848484336040518563ffffffff1660e01b8152600401808567ffffffffffffffff1667ffffffffffffffff16815260200180602001848152602001836001600160a01b03166001600160a01b03168152602001828103825285818151815260200191508051906020019080838360005b8381101561159b578181015183820152602001611583565b50505050905090810190601f1680156115c85780820380516001836020036101000a031916815260200191505b5095505050505050602060405180830381600087803b1580156115ea57600080fd5b505af11580156115fe573d6000803e3d6000fd5b505050506040513d602081101561161457600080fd5b505115610f1b57610f1b84611f24565b6004546001600160a01b031681565b600b5460408051632153522560e11b8152336004820181905291516000936001600160a01b0316916342a6a44a91602480830192602092919082900301818887803b15801561168157600080fd5b505af1158015611695573d6000803e3d6000fd5b505050506040513d60208110156116ab57600080fd5b50516116f5576040805162461bcd60e51b81526020600482015260146024820152733737ba1030903a393ab9ba32b21034b9b9bab2b960611b604482015290519081900360640190fd5b6116ff8484611f37565b949350505050565b6002805460408051602060018416156101000260001901909316849004601f810184900484028201840190925281815292918301828280156108f65780601f106108cb576101008083540402835291602001916108f6565b6009546000901580611792575081600960008154811061177b57fe5b6000918252602090912001546001600160801b0316115b1561183a576004546001600160a01b031615611832576004546005546001600160a01b039091169063981b24d0906117cb908590611dde565b6040518263ffffffff1660e01b81526004018082815260200191505060206040518083038186803b1580156117ff57600080fd5b505afa158015611813573d6000803e3d6000fd5b505050506040513d602081101561182957600080fd5b505190506113b0565b5060006113b0565b611845600983611df4565b90506113b0565b600a5460009060ff1661185e57600080fd5b610fb6338484611cbb565b600a5460ff1681565b60055481565b600061188484846108fe565b61188d57600080fd5b604051638f4ffcb160e01b815233600482018181526024830186905230604484018190526080606485019081528651608486015286516001600160a01b038a1695638f4ffcb195948a94938a939192909160a490910190602085019080838360005b838110156119075781810151838201526020016118ef565b50505050905090810190601f1680156119345780820380516001836020036101000a031916815260200191505b5095505050505050600060405180830381600087803b15801561195657600080fd5b505af115801561196a573d6000803e3d6000fd5b506001979650505050505050565b600b5460408051632153522560e11b8152336004820181905291516000936001600160a01b0316916342a6a44a91602480830192602092919082900301818887803b1580156119c657600080fd5b505af11580156119da573d6000803e3d6000fd5b505050506040513d60208110156119f057600080fd5b5051611a3a576040805162461bcd60e51b81526020600482015260146024820152733737ba1030903a393ab9ba32b21034b9b9bab2b960611b604482015290519081900360640190fd5b6116ff8484611fec565b6001600160a01b03918216600090815260086020908152604080832093909416825291909152205490565b600c546001600160a01b031681565b6001600160a01b038216611ac8576040516001600160a01b03821690303180156108fc02916000818181858888f19350505050158015611ac2573d6000803e3d6000fd5b50611cb7565b604080516370a0823160e01b8152306004820152905183916000916001600160a01b038416916370a0823191602480830192602092919082900301818787803b158015611b1457600080fd5b505af1158015611b28573d6000803e3d6000fd5b505050506040513d6020811015611b3e57600080fd5b5051604080516001600160a01b038681166024830152604480830185905283518084039091018152606490920183526020820180516001600160e01b031663a9059cbb60e01b178152925182519495506000949189169390918291908083835b60208310611bbd5780518252601f199092019160209182019101611b9e565b6001836020036101000a0380198251168184511680821785525050505050509050019150506000604051808303816000865af19150503d8060008114611c1f576040519150601f19603f3d011682016040523d82523d6000602084013e611c24565b606091505b5050905080611c68576040805162461bcd60e51b815260206004820152600b60248201526a18d85b1b0819985a5b195960aa1b604482015290519081900360640190fd5b836001600160a01b0316856001600160a01b03167ff931edb47c50b4b4104c187b5814a9aef5f709e17e2ecf9617e860cacade929c846040518082815260200191505060405180910390a35050505b5050565b600081611cca57506001610fb6565b4360055410611cd857600080fd5b6001600160a01b03831615801590611cf957506001600160a01b0383163014155b611d0257600080fd5b6000611d0e85436111ec565b905082811015611d22576000915050610fb6565b6001600160a01b0385166000908152600760205260409020611d469084830361209d565b6000611d5285436111ec565b9050808482011015611d6357600080fd5b6001600160a01b0385166000908152600760205260409020611d879082860161209d565b846001600160a01b0316866001600160a01b03167fddf252ad1be2c89b69c2b068fc378daa952ba7f163c4a11628f55a4df523b3ef866040518082815260200191505060405180910390a350600195945050505050565b6000818310611ded5781610fb6565b5090919050565b8154600090611e05575060006109a9565b825483906000198101908110611e1757fe5b6000918252602090912001546001600160801b03168210611e6757825483906000198101908110611e4457fe5b600091825260209091200154600160801b90046001600160801b031690506109a9565b82600081548110611e7457fe5b6000918252602090912001546001600160801b0316821015611e98575060006109a9565b8254600090600019015b81811115611ef3576000600260018385010104905084868281548110611ec457fe5b6000918252602090912001546001600160801b031611611ee657809250611eed565b6001810391505b50611ea2565b848281548110611eff57fe5b600091825260209091200154600160801b90046001600160801b031695945050505050565b600a805460ff1916911515919091179055565b600080611f42610f28565b9050808382011015611f5357600080fd5b6000611f5e856113a1565b9050808482011015611f6f57600080fd5b611f7c600985840161209d565b6001600160a01b0385166000908152600760205260409020611fa09082860161209d565b6040805185815290516001600160a01b038716916000917fddf252ad1be2c89b69c2b068fc378daa952ba7f163c4a11628f55a4df523b3ef9181900360200190a3506001949350505050565b600080611ff7610f28565b90508281101561200657600080fd5b6000612011856113a1565b90508381101561202057600080fd5b61202d600985840361209d565b6001600160a01b03851660009081526007602052604090206120519085830361209d565b6040805185815290516000916001600160a01b038816917fddf252ad1be2c89b69c2b068fc378daa952ba7f163c4a11628f55a4df523b3ef9181900360200190a3506001949350505050565b815415806120d1575081544390839060001981019081106120ba57fe5b6000918252602090912001546001600160801b0316105b1561213857815460009083906120ea8260018301612175565b815481106120f457fe5b600091825260209091200180546001600160801b03848116600160801b024382166fffffffffffffffffffffffffffffffff19909316929092171617905550611cb7565b81546000908390600019810190811061214d57fe5b600091825260209091200180546001600160801b03808516600160801b029116179055505050565b8154818355818111156121995760008381526020902061219991810190830161219e565b505050565b610f3691905b808211156121b857600081556001016121a4565b509056fe63616e6e6f74207472616e7366657220657468657220746f207468697320636f6e74726163746f6e6c792061207369676e65722063616e2063616c6c20696e204d756c7469536967546f6f6c73a265627a7a72305820cd835ec76787c7a236a72d47a8f207daa8d86da67451f56204d290ae84c82b2964736f6c634300050a0032",
  "source": "pragma solidity >=0.4.21 <0.6.0;\n\nimport \"./ERC20Impl.sol\";\nimport \"./utils/TokenClaimer.sol\";\nimport \"./TrustListTools.sol\";\nimport \"./MultiSigTools.sol\";\n\ncontract GTToken is ERC20Base, MultiSigTools, TrustListTools, TokenClaimer{\n\n  GTTokenFactory public tokenFactory;\n\n  event NewCloneToken(address indexed _cloneToken, uint _snapshotBlock);\n\n  constructor(\n        GTTokenFactory _tokenFactory,\n        ERC20Base _parentToken,\n        uint _parentSnapShotBlock,\n        string memory _tokenName,\n        uint8 _decimalUnits,\n        string memory _tokenSymbol,\n        bool _transfersEnabled,\n        address multisig,\n        address _tlist)\n    ERC20Base(_parentToken,\n    _parentSnapShotBlock,\n    _tokenName,\n    _decimalUnits,\n    _tokenSymbol,\n    _transfersEnabled) MultiSigTools(multisig) TrustListTools(_tlist) public{\n      tokenFactory = _tokenFactory;\n    }\n\n    function claimStdTokens(uint64 id, address _token, address payable to) public only_signer is_majority_sig(id, \"claimStdTokens\"){\n      _claimStdTokens(_token, to);\n    }\n\n    function createCloneToken(\n        string memory _cloneTokenName,\n        uint8 _cloneDecimalUnits,\n        string memory _cloneTokenSymbol,\n        uint _snapshotBlock,\n        bool _transfersEnabled,\n        address _multisig,\n        address _tlist\n    )public returns(GTToken){\n\n        uint256 snapshot = _snapshotBlock == 0 ? block.number - 1 : _snapshotBlock;\n        GTToken cloneToken = tokenFactory.createCloneToken(this, snapshot,\n            _cloneTokenName,\n            _cloneDecimalUnits,\n            _cloneTokenSymbol,\n            _transfersEnabled,\n            _multisig,\n            _tlist\n          );\n        emit NewCloneToken(address(cloneToken), snapshot);\n        return cloneToken;\n    }\n\n    function generateTokens(address _owner, uint _amount)\n    public\n    is_trusted(msg.sender)\n    returns (bool){\n      return _generateTokens(_owner, _amount);\n    }\n\n    function destroyTokens(address _owner, uint _amount)\n    public\n    is_trusted(msg.sender)\n    returns (bool) {\n      return _destroyTokens(_owner, _amount);\n    }\n\n    function enableTransfers(uint64 id, bool _transfersEnabled)\n    public only_signer\n    is_majority_sig(id, \"enableTransfers\"){\n      _enableTransfers(_transfersEnabled);\n    }\n}\n\n/// @dev This contract is used to generate clone contracts from a contract.\n///  In solidity this is the way to create a contract from a contract of the\n///  same class\ncontract GTTokenFactory {\n  event NewToken(address indexed _cloneToken, uint _snapshotBlock);\n\n    /// @notice Update the DApp by creating a new token with new functionalities\n    ///  the msg.sender becomes the controller of this clone token\n    /// @param _parentToken Address of the token being cloned\n    /// @param _snapshotBlock Block of the parent token that will\n    ///  determine the initial distribution of the clone token\n    /// @param _tokenName Name of the new token\n    /// @param _decimalUnits Number of decimals of the new token\n    /// @param _tokenSymbol Token Symbol for the new token\n    /// @param _transfersEnabled If true, tokens will be able to be transferred\n    /// @return The address of the new token contract\n    function createCloneToken(\n        GTToken _parentToken,\n        uint _snapshotBlock,\n        string memory _tokenName,\n        uint8 _decimalUnits,\n        string memory _tokenSymbol,\n        bool _transfersEnabled,\n        address _multisig,\n        address _tlist\n    ) public returns (GTToken)\n    {\n        GTToken newToken = new GTToken(\n            this,\n            _parentToken,\n            _snapshotBlock,\n            _tokenName,\n            _decimalUnits,\n            _tokenSymbol,\n            _transfersEnabled,\n            _multisig,\n            _tlist\n        );\n        emit NewToken(address(newToken), _snapshotBlock);\n\n        return newToken;\n    }\n}\n",
  "sourcePath": "/Users/xuepeng/git/gttoken-contract/contracts/GTToken.sol",
  "compiler": {
    "name": "solc",
    "version": "0.5.10+commit.5a6ea5b1.Emscripten.clang"
  },
  "schemaVersion": "3.0.11",
  "updatedAt": "2019-11-03T16:20:56.329Z",
  "devdoc": {
    "methods": {
      "allowance(address,address)": {
        "details": "This function makes it easy to read the `allowed[]` map",
        "params": {
          "_owner": "The address of the account that owns the token",
          "_spender": "The address of the account able to transfer the tokens"
        },
        "return": "Amount of remaining tokens of _owner that _spender is allowed  to spend"
      },
      "approve(address,uint256)": {
        "params": {
          "_amount": "The amount of tokens to be approved for transfer",
          "_spender": "The address of the account able to transfer the tokens"
        },
        "return": "True if the approval was successful"
      },
      "approveAndCall(address,uint256,bytes)": {
        "params": {
          "_amount": "The amount of tokens to be approved for transfer",
          "_spender": "The address of the contract able to transfer the tokens"
        },
        "return": "True if the function call was successful"
      },
      "balanceOf(address)": {
        "params": {
          "_owner": "The address that's balance is being requested"
        },
        "return": "The balance of `_owner` at the current block"
      },
      "balanceOfAt(address,uint256)": {
        "details": "Queries the balance of `_owner` at a specific `_blockNumber`",
        "params": {
          "_blockNumber": "The block number when the balance is queried",
          "_owner": "The address from which the balance will be retrieved"
        },
        "return": "The balance at `_blockNumber`"
      },
      "totalSupply()": {
        "details": "This function makes it easy to get the total number of tokens",
        "return": "The total number of tokens"
      },
      "totalSupplyAt(uint256)": {
        "params": {
          "_blockNumber": "The block number when the totalSupply is queried"
        },
        "return": "The total amount of tokens at `_blockNumber`"
      },
      "transfer(address,uint256)": {
        "params": {
          "_amount": "The amount of tokens to be transferred",
          "_to": "The address of the recipient"
        },
        "return": "Whether the transfer was successful or not"
      },
      "transferFrom(address,address,uint256)": {
        "params": {
          "_amount": "The amount of tokens to be transferred",
          "_from": "The address holding the tokens being transferred",
          "_to": "The address of the recipient"
        },
        "return": "True if the transfer was successful"
      }
    }
  },
  "userdoc": {
    "methods": {
      "approve(address,uint256)": {
        "notice": "`msg.sender` approves `_spender` to spend `_amount` tokens on  its behalf. This is a modified version of the ERC20 approve function  to be a little bit safer"
      },
      "approveAndCall(address,uint256,bytes)": {
        "notice": "`msg.sender` approves `_spender` to send `_amount` tokens on  its behalf, and then a function is triggered in the contract that is  being approved, `_spender`. This allows users to use their tokens to  interact with contracts in one function call instead of two"
      },
      "balanceOfAt(address,uint256)": {
        "notice": "/////////////"
      },
      "totalSupplyAt(uint256)": {
        "notice": "Total amount of tokens at a specific `_blockNumber`."
      },
      "transfer(address,uint256)": {
        "notice": "////////////////Send `_amount` tokens to `_to` from `msg.sender`"
      },
      "transferFrom(address,address,uint256)": {
        "notice": "Send `_amount` tokens to `_to` from `_from` on the condition it  is approved by `_from`"
      }
    }
  }
}