{
  "contractName": "MultiSig",
  "abi": [
    {
      "constant": true,
      "inputs": [
        {
          "name": "",
          "type": "uint256"
        }
      ],
      "name": "signers",
      "outputs": [
        {
          "name": "",
          "type": "address"
        }
      ],
      "payable": false,
      "stateMutability": "view",
      "type": "function"
    },
    {
      "constant": true,
      "inputs": [
        {
          "name": "",
          "type": "bytes32"
        }
      ],
      "name": "invokes",
      "outputs": [
        {
          "name": "propose_height",
          "type": "uint256"
        },
        {
          "name": "invoke_hash",
          "type": "bytes32"
        },
        {
          "name": "func_name",
          "type": "string"
        },
        {
          "name": "invoke_id",
          "type": "uint64"
        },
        {
          "name": "called",
          "type": "bool"
        },
        {
          "name": "processing",
          "type": "bool"
        },
        {
          "name": "exists",
          "type": "bool"
        }
      ],
      "payable": false,
      "stateMutability": "view",
      "type": "function"
    },
    {
      "constant": true,
      "inputs": [
        {
          "name": "",
          "type": "bytes32"
        }
      ],
      "name": "used_invoke_ids",
      "outputs": [
        {
          "name": "",
          "type": "uint64"
        }
      ],
      "payable": false,
      "stateMutability": "view",
      "type": "function"
    },
    {
      "constant": true,
      "inputs": [],
      "name": "owner",
      "outputs": [
        {
          "name": "",
          "type": "address"
        }
      ],
      "payable": false,
      "stateMutability": "view",
      "type": "function"
    },
    {
      "constant": true,
      "inputs": [],
      "name": "signer_number",
      "outputs": [
        {
          "name": "",
          "type": "uint256"
        }
      ],
      "payable": false,
      "stateMutability": "view",
      "type": "function"
    },
    {
      "constant": true,
      "inputs": [
        {
          "name": "",
          "type": "address"
        }
      ],
      "name": "signer_join_height",
      "outputs": [
        {
          "name": "",
          "type": "uint256"
        }
      ],
      "payable": false,
      "stateMutability": "view",
      "type": "function"
    },
    {
      "inputs": [
        {
          "name": "s",
          "type": "address[]"
        }
      ],
      "payable": false,
      "stateMutability": "nonpayable",
      "type": "constructor"
    },
    {
      "anonymous": false,
      "inputs": [
        {
          "indexed": false,
          "name": "old_signers",
          "type": "address[]"
        },
        {
          "indexed": false,
          "name": "new_signers",
          "type": "address[]"
        }
      ],
      "name": "signers_reformed",
      "type": "event"
    },
    {
      "anonymous": false,
      "inputs": [
        {
          "indexed": false,
          "name": "name",
          "type": "string"
        },
        {
          "indexed": false,
          "name": "id",
          "type": "uint64"
        },
        {
          "indexed": false,
          "name": "current_signed_number",
          "type": "uint64"
        },
        {
          "indexed": false,
          "name": "propose_height",
          "type": "uint256"
        }
      ],
      "name": "valid_function_sign",
      "type": "event"
    },
    {
      "anonymous": false,
      "inputs": [
        {
          "indexed": false,
          "name": "name",
          "type": "string"
        },
        {
          "indexed": false,
          "name": "id",
          "type": "uint64"
        },
        {
          "indexed": false,
          "name": "propose_height",
          "type": "uint256"
        }
      ],
      "name": "function_called",
      "type": "event"
    },
    {
      "constant": true,
      "inputs": [
        {
          "name": "_addr",
          "type": "address"
        }
      ],
      "name": "is_signer",
      "outputs": [
        {
          "name": "",
          "type": "bool"
        }
      ],
      "payable": false,
      "stateMutability": "view",
      "type": "function"
    },
    {
      "constant": false,
      "inputs": [
        {
          "name": "id",
          "type": "uint64"
        },
        {
          "name": "name",
          "type": "string"
        },
        {
          "name": "hash",
          "type": "bytes32"
        },
        {
          "name": "sender",
          "type": "address"
        }
      ],
      "name": "update_and_check_reach_majority",
      "outputs": [
        {
          "name": "",
          "type": "bool"
        }
      ],
      "payable": false,
      "stateMutability": "nonpayable",
      "type": "function"
    },
    {
      "constant": false,
      "inputs": [
        {
          "name": "id",
          "type": "uint64"
        },
        {
          "name": "s",
          "type": "address[]"
        }
      ],
      "name": "reform_signers",
      "outputs": [],
      "payable": false,
      "stateMutability": "nonpayable",
      "type": "function"
    },
    {
      "constant": true,
      "inputs": [
        {
          "name": "name",
          "type": "string"
        }
      ],
      "name": "get_unused_invoke_id",
      "outputs": [
        {
          "name": "",
          "type": "uint64"
        }
      ],
      "payable": false,
      "stateMutability": "view",
      "type": "function"
    },
    {
      "constant": true,
      "inputs": [],
      "name": "get_signers",
      "outputs": [
        {
          "name": "",
          "type": "address[]"
        }
      ],
      "payable": false,
      "stateMutability": "view",
      "type": "function"
    }
  ],
  "bytecode": "0x60806040523480156200001157600080fd5b50604051620017d8380380620017d8833981810160405260208110156200003757600080fd5b8101908080516401000000008111156200005057600080fd5b820160208101848111156200006457600080fd5b81518560208202830111640100000000821117156200008257600080fd5b505092919050505080600381511015620000e8576040517f08c379a0000000000000000000000000000000000000000000000000000000008152600401808060200182810382526021815260200180620017b76021913960400191505060405180910390fd5b81516000908155600280546001600160a01b031916331790555b8251811015620001985760018382815181106200011b57fe5b6020908102919091018101518254600181018455600093845291832090910180546001600160a01b0319166001600160a01b03909216919091179055835143916005918690859081106200016b57fe5b6020908102919091018101516001600160a01b031682528101919091526040016000205560010162000102565b50505061160c80620001ab6000396000f3fe608060405234801561001057600080fd5b50600436106100a95760003560e01c80638da5cb5b116100715780638da5cb5b14610283578063b9b873f61461028b578063bb7e7f16146102a5578063d253eced1461034b578063d40a35691461040f578063e62cd26e14610491576100a9565b80632079fb9a146100ae57806325d93f40146100e75780632918031514610121578063522f6286146101f2578063690dfdff1461024a575b600080fd5b6100cb600480360360208110156100c457600080fd5b50356104b7565b604080516001600160a01b039092168252519081900360200190f35b61010d600480360360208110156100fd57600080fd5b50356001600160a01b03166104de565b604080519115158252519081900360200190f35b61013e6004803603602081101561013757600080fd5b503561054a565b6040805188815260208082018990526001600160401b0387166060830152851515608083015284151560a083015283151560c083015260e0928201838152885193830193909352875191929161010084019189019080838360005b838110156101b1578181015183820152602001610199565b50505050905090810190601f1680156101de5780820380516001836020036101000a031916815260200191505b509850505050505050505060405180910390f35b6101fa610620565b60408051602080825283518183015283519192839290830191858101910280838360005b8381101561023657818101518382015260200161021e565b505050509050019250505060405180910390f35b6102676004803603602081101561026057600080fd5b5035610683565b604080516001600160401b039092168252519081900360200190f35b6100cb61069e565b6102936106ad565b60408051918252519081900360200190f35b610267600480360360208110156102bb57600080fd5b8101906020810181356401000000008111156102d657600080fd5b8201836020820111156102e857600080fd5b8035906020019184600183028401116401000000008311171561030a57600080fd5b91908080601f0160208091040260200160405190810160405280939291908181526020018383808284376000920191909152509295506106b3945050505050565b61010d6004803603608081101561036157600080fd5b6001600160401b03823516919081019060408101602082013564010000000081111561038c57600080fd5b82018360208201111561039e57600080fd5b803590602001918460018302840111640100000000831117156103c057600080fd5b91908080601f01602080910402602001604051908101604052809392919081815260200183838082843760009201919091525092955050823593505050602001356001600160a01b0316610749565b61048f6004803603604081101561042557600080fd5b6001600160401b03823516919081019060408101602082013564010000000081111561045057600080fd5b82018360208201111561046257600080fd5b8035906020019184602083028401116401000000008311171561048457600080fd5b509092509050610783565b005b610293600480360360208110156104a757600080fd5b50356001600160a01b0316610bd8565b600181815481106104c457fe5b6000918252602090912001546001600160a01b0316905081565b6000610544600180548060200260200160405190810160405280929190818152602001828054801561053957602002820191906000526020600020905b81546001600160a01b0316815260019091019060200180831161051b575b505050505083610bea565b92915050565b60036020908152600091825260409182902080546001808301546002808501805488519481161561010002600019011691909104601f8101879004870284018701909752868352929590949192918301828280156105e95780601f106105be576101008083540402835291602001916105e9565b820191906000526020600020905b8154815290600101906020018083116105cc57829003601f168201915b505050600384015460059094015492936001600160401b0381169360ff600160401b90920482169350808216925061010090041687565b6060600180548060200260200160405190810160405280929190818152602001828054801561067857602002820191906000526020600020905b81546001600160a01b0316815260019091019060200180831161065a575b505050505090505b90565b6004602052600090815260409020546001600160401b031681565b6002546001600160a01b031681565b60005481565b600060046000836040516020018082805190602001908083835b602083106106ec5780518252601f1990920191602091820191016106cd565b51815160209384036101000a60001901801990921691161790526040805192909401828103601f1901835284528151918101919091208652850195909552929092016000205460016001600160401b039091160195945050505050565b60006107626001610758610c40565b0386868686610c57565b61076e5750600061077b565b61077783611264565b5060015b949350505050565b6107e760018054806020026020016040519081016040528092919081815260200182805480156107dc57602002820191906000526020600020905b81546001600160a01b031681526001909101906020018083116107be575b505050505033610bea565b610838576040805162461bcd60e51b815260206004820152601b60248201527f6f6e6c792061207369676e65722063616e2063616c6c20746869730000000000604482015290519081900360640190fd5b8181808060200260200160405190810160405280939291908181526020018383602002808284376000920191909152505082516003111591506108ae90505760405162461bcd60e51b81526004018080602001828103825260218152602001806115b76021913960400191505060405180910390fd5b836040518060400160405280600e81526020016d7265666f726d5f7369676e65727360901b815250600080356001600160e01b03191660003660405160200180846001600160e01b0319166001600160e01b0319168152600401838380828437808301925050509350505050604051602081830303815290604052805190602001209050610949600161093f610c40565b0384848433610c57565b6109535750610bd0565b61095c81611264565b606060018054806020026020016040519081016040528092919081815260200182805480156109b457602002820191906000526020600020905b81546001600160a01b03168152600190910190602001808311610996575b50939450600093505050505b86811015610a45576109ed828989848181106109d857fe5b905060200201356001600160a01b0316610bea565b156109f757610a3d565b43600560008a8a85818110610a0857fe5b905060200201356001600160a01b03166001600160a01b03166001600160a01b03168152602001908152602001600020819055505b6001016109c0565b5060005b8151811015610af457610aa38888808060200260200160405190810160405280939291908181526020018383602002808284376000920191909152505085518692508591508110610a9657fe5b6020026020010151610bea565b15610aad57610aec565b600060056000848481518110610abf57fe5b60200260200101516001600160a01b03166001600160a01b03168152602001908152602001600020819055505b600101610a49565b506000869055610b0660018888611462565b507ff0e485890d6e70afabeb5f8d0bd74ed147aaf78b4885beca243eda092002373d816001604051808060200180602001838103835285818151815260200191508051906020019060200280838360005b83811015610b6f578181015183820152602001610b57565b505050509050018381038252848181548152602001915080548015610bbd57602002820191906000526020600020905b81546001600160a01b03168152600190910190602001808311610b9f575b505094505050505060405180910390a150505b505050505050565b60056020526000908152604090205481565b6000805b8351811015610c3657826001600160a01b0316848281518110610c0d57fe5b60200260200101516001600160a01b03161415610c2e576001915050610544565b600101610bee565b5060009392505050565b6000600260005481610c4e57fe5b04600101905090565b600080846040516020018082805190602001908083835b60208310610c8d5780518252601f199092019160209182019101610c6e565b51815160209384036101000a60001901801990921691161790526040805192909401828103601f19018352845281519181019190912060008181526004909252929020549194505060016001600160401b0391821601811690891611159150610d3f9050576040805162461bcd60e51b815260206004820152601a60248201527f796f75277265207573696e67206120746f6f206269672069642e000000000000604482015290519081900360640190fd5b6000818152600460205260409020546001600160401b039081169087161115610d8b576000818152600460205260409020805467ffffffffffffffff19166001600160401b0388161790555b600084815260036020526040902060050154610100900460ff16610f13576000848152600360209081526040909120438155600181018690558651610dd8926002909201918801906114c5565b506000848152600360208181526040808420928301805467ffffffffffffffff19166001600160401b038c1690811760ff60401b1916909155600484018054600181810183559187528487200180546001600160a01b0319166001600160a01b038b161790558986526005909401805461010061ffff19909116179055815180840191909152908101839052436060820181905260808083528a519083015289517f1ca60eee8f086d30c87f5d6ee44e99c7277c0e9fdc7bbc02fb20861365faaa34958b958d95909492839260a0840192890191908190849084905b83811015610ecc578181015183820152602001610eb4565b50505050905090810190601f168015610ef95780820380516001836020036101000a031916815260200191505b509550505050505060405180910390a1600091505061125b565b6000848152600360209081526040918290206004810180548451818502810185019095528085529193610f8793909290830182828015610f7c57602002820191906000526020600020905b81546001600160a01b03168152600190910190602001808311610f5e575b505050505085610bea565b15610fd9576040805162461bcd60e51b815260206004820152601e60248201527f796f7520616c72656164792063616c6c65642074686973206d6574686f640000604482015290519081900360640190fd5b6001600160a01b038416600090815260056020526040812054815b60048401548110156110da578354821061103f5760405162461bcd60e51b815260040180806020018281038252603981526020018061157e6039913960400191505060405180910390fd5b6110c6600180548060200260200160405190810160405280929190818152602001828054801561109857602002820191906000526020600020905b81546001600160a01b0316815260019091019060200180831161107a575b50505050508560040183815481106110ac57fe5b6000918252602090912001546001600160a01b0316610bea565b156110d2576001909201915b600101610ff4565b50826004018690806001815401808255809150509060018203906000526020600020016000909192909190916101000a8154816001600160a01b0302191690836001600160a01b031602179055505081806001019250507f1ca60eee8f086d30c87f5d6ee44e99c7277c0e9fdc7bbc02fb20861365faaa34888a8486600001546040518080602001856001600160401b03166001600160401b03168152602001846001600160401b03166001600160401b03168152602001838152602001828103825286818151815260200191508051906020019080838360005b838110156111cd5781810151838201526020016111b5565b50505050905090810190601f1680156111fa5780820380516001836020036101000a031916815260200191505b509550505050505060405180910390a16003830154600160401b900460ff161561122b57600094505050505061125b565b896000540382101561124457600094505050505061125b565b5050600501805460ff191660019081179091559150505b95945050505050565b60008181526003602052604090206005810154610100900460ff166112c3576040805162461bcd60e51b815260206004820152601060248201526f37379039bab1b410333ab731ba34b7b760811b604482015290519081900360640190fd5b6003810154600160401b900460ff1615611315576040805162461bcd60e51b815260206004820152600e60248201526d185b1c9958591e4818d85b1b195960921b604482015290519081900360640190fd5b600581015460ff1661136e576040805162461bcd60e51b815260206004820152601b60248201527f63616e6e6f742063616c6c20746869732073657061726174656c790000000000604482015290519081900360640190fd5b60038101805460ff60401b1916600160401b179081905560058201805460ff191690558154604080516001600160401b03909316602084018190529083018290526060808452600280860180546000196001821615610100020116919091049185018290527f6da3b955a498e574bfad6f6ff75724a854efa13d27e7541dbd4e54f15c6f748a94909391819060808201908690801561144e5780601f106114235761010080835404028352916020019161144e565b820191906000526020600020905b81548152906001019060200180831161143157829003601f168201915b505094505050505060405180910390a15050565b8280548282559060005260206000209081019282156114b5579160200282015b828111156114b55781546001600160a01b0319166001600160a01b03843516178255602090920191600190910190611482565b506114c192915061153f565b5090565b828054600181600116156101000203166002900490600052602060002090601f016020900481019282601f1061150657805160ff1916838001178555611533565b82800160010185558215611533579182015b82811115611533578251825591602001919060010190611518565b506114c1929150611563565b61068091905b808211156114c15780546001600160a01b0319168155600101611545565b61068091905b808211156114c1576000815560010161156956fe746869732070726f706f73616c20697320616c7265616479206578697374206265666f726520796f75206265636f6d652061207369676e6572746865206e756d626572206f66207369676e657273206d757374206265203e3d33a265627a7a723058208a4d5f88dafc55bce5ef61df93e989e0eda1a6ff824ad1bc32148a289227048c64736f6c634300050a0032746865206e756d626572206f66207369676e657273206d757374206265203e3d33",
  "source": "pragma solidity >=0.4.21 <0.6.0;\n\ncontract MultiSig{\n\n  struct invoke_status{\n    uint propose_height;\n    bytes32 invoke_hash;\n    string func_name;\n    uint64 invoke_id;\n    bool called;\n    address[] invoke_signers;\n    bool processing;\n    bool exists;\n  }\n\n  uint public signer_number;\n  address[] public signers;\n  address public owner;\n  mapping (bytes32 => invoke_status) public invokes;\n  mapping (bytes32 => uint64) public used_invoke_ids;\n  mapping(address => uint) public signer_join_height;\n\n  event signers_reformed(address[] old_signers, address[] new_signers);\n  event valid_function_sign(string name, uint64 id, uint64 current_signed_number, uint propose_height);\n  event function_called(string name, uint64 id, uint propose_height);\n\n  modifier enough_signers(address[] memory s){\n    require(s.length >=3, \"the number of signers must be >=3\");\n    _;\n  }\n  constructor(address[] memory s) public enough_signers(s){\n    signer_number = s.length;\n    owner = msg.sender;\n    for(uint i = 0; i < s.length; i++){\n      signers.push(s[i]);\n      signer_join_height[s[i]] = block.number;\n    }\n  }\n\n  modifier only_signer{\n    require(array_exist(signers, msg.sender), \"only a signer can call this\");\n    _;\n  }\n\n  function is_signer(address _addr) public view returns(bool){\n    return array_exist(signers, _addr);\n  }\n\n  function get_majority_number() private view returns(uint){\n    return signer_number/2 + 1;\n  }\n\n  function array_exist (address[] memory accounts, address p) private pure returns (bool){\n    for (uint i = 0; i< accounts.length;i++){\n      if (accounts[i]==p){\n        return true;\n      }\n    }\n    return false;\n  }\n\n  function is_all_minus_sig(uint number, uint64 id, string memory name, bytes32 hash, address sender) internal returns (bool){\n    bytes32 b = keccak256(abi.encodePacked(name));\n    require(id <= used_invoke_ids[b] + 1, \"you're using a too big id.\");\n\n    if(id > used_invoke_ids[b]){\n      used_invoke_ids[b] = id;\n    }\n\n    if(!invokes[hash].exists){\n      invokes[hash].propose_height = block.number;\n      invokes[hash].invoke_hash = hash;\n      invokes[hash].func_name= name;\n      invokes[hash].invoke_id= id;\n      invokes[hash].called= false;\n      invokes[hash].invoke_signers.push(sender);\n      invokes[hash].processing= false;\n      invokes[hash].exists= true;\n      emit valid_function_sign(name, id, 1, block.number);\n      return false;\n    }\n\n    invoke_status storage invoke = invokes[hash];\n    require(!array_exist(invoke.invoke_signers, sender), \"you already called this method\");\n\n    uint valid_invoke_num = 0;\n    uint join_height = signer_join_height[sender];\n    for(uint i = 0; i < invoke.invoke_signers.length; i++){\n      require(join_height < invoke.propose_height, \"this proposal is already exist before you become a signer\");\n      if(array_exist(signers, invoke.invoke_signers[i])){\n        valid_invoke_num ++;\n      }\n    }\n    invoke.invoke_signers.push(sender);\n    valid_invoke_num ++;\n    emit valid_function_sign(name, id, uint64(valid_invoke_num), invoke.propose_height);\n    if(invoke.called) return false;\n    if(valid_invoke_num < signer_number-number) return false;\n    invoke.processing = true;\n    return true;\n  }\n\n  function update_and_check_reach_majority(uint64 id, string memory name, bytes32 hash, address sender) public returns (bool){\n    //bytes32 hash = keccak256(abi.encodePacked(msg.sig, msg.data));\n    if(!is_all_minus_sig(get_majority_number()-1, id, name, hash, sender))\n      return false;\n    set_called(hash);\n    return true;\n  }\n\n  modifier is_majority_sig(uint64 id, string memory name) {\n    bytes32 hash = keccak256(abi.encodePacked(msg.sig, msg.data));\n    if(!is_all_minus_sig(get_majority_number()-1, id, name, hash, msg.sender))\n      return ;\n    set_called(hash);\n    _;\n  }\n\n  modifier is_all_sig(uint64 id, string memory name) {\n    bytes32 hash = keccak256(abi.encodePacked(msg.sig, msg.data));\n    if(!is_all_minus_sig(0, id, name, hash, msg.sender)) return ;\n    set_called(hash);\n    _;\n  }\n\n  function set_called(bytes32 hash) internal {\n    invoke_status storage invoke = invokes[hash];\n    require(invoke.exists, \"no such function\");\n    require(!invoke.called, \"already called\");\n    require(invoke.processing, \"cannot call this separately\");\n    invoke.called = true;\n    invoke.processing = false;\n    emit function_called(invoke.func_name, invoke.invoke_id, invoke.propose_height);\n  }\n\n  function reform_signers(uint64 id, address[] calldata s)\n    external\n    only_signer\n    enough_signers(s)\n    is_majority_sig(id, \"reform_signers\"){\n    address[] memory old_signers = signers;\n    for(uint i = 0; i < s.length; i++){\n      if(array_exist(old_signers, s[i])){\n      }else{\n        signer_join_height[s[i]] = block.number;\n      }\n    }\n    for(uint i = 0; i < old_signers.length; i++){\n      if(array_exist(s, old_signers[i])){\n      }else{\n        signer_join_height[old_signers[i]] = 0;\n      }\n    }\n    signer_number = s.length;\n    signers = s;\n    emit signers_reformed(old_signers, signers);\n  }\n\n  function get_unused_invoke_id(string memory name) public view returns(uint64){\n    return used_invoke_ids[keccak256(abi.encodePacked(name))] + 1;\n  }\n  function get_signers() public view returns(address[] memory){\n    return signers;\n  }\n}\n\ncontract MultiSigFactory{\n  event NewMultiSig(address addr, address[] signers);\n\n  function createMultiSig(address[] memory _signers) public returns(address){\n    MultiSig ms = new MultiSig(_signers);\n    emit NewMultiSig(address(ms), _signers);\n    return address(ms);\n  }\n}\n\n",
  "sourcePath": "/Users/xuepeng/git/gttoken-contract/contracts/MultiSig.sol",
  "compiler": {
    "name": "solc",
    "version": "0.5.10+commit.5a6ea5b1.Emscripten.clang"
  },
  "schemaVersion": "3.0.11",
  "updatedAt": "2019-11-03T16:20:56.356Z",
  "devdoc": {
    "methods": {}
  },
  "userdoc": {
    "methods": {}
  }
}