{
  "contractName": "StdERC20",
  "abi": [
    {
      "constant": true,
      "inputs": [],
      "name": "name",
      "outputs": [
        {
          "name": "",
          "type": "string"
        }
      ],
      "payable": false,
      "stateMutability": "view",
      "type": "function"
    },
    {
      "constant": true,
      "inputs": [],
      "name": "decimals",
      "outputs": [
        {
          "name": "",
          "type": "uint8"
        }
      ],
      "payable": false,
      "stateMutability": "view",
      "type": "function"
    },
    {
      "constant": true,
      "inputs": [],
      "name": "token_issuer",
      "outputs": [
        {
          "name": "",
          "type": "address"
        }
      ],
      "payable": false,
      "stateMutability": "view",
      "type": "function"
    },
    {
      "constant": true,
      "inputs": [],
      "name": "_totalSupply",
      "outputs": [
        {
          "name": "",
          "type": "uint256"
        }
      ],
      "payable": false,
      "stateMutability": "view",
      "type": "function"
    },
    {
      "constant": true,
      "inputs": [],
      "name": "symbol",
      "outputs": [
        {
          "name": "",
          "type": "string"
        }
      ],
      "payable": false,
      "stateMutability": "view",
      "type": "function"
    },
    {
      "constant": true,
      "inputs": [],
      "name": "announcement",
      "outputs": [
        {
          "name": "",
          "type": "string"
        }
      ],
      "payable": false,
      "stateMutability": "view",
      "type": "function"
    },
    {
      "constant": true,
      "inputs": [
        {
          "name": "a",
          "type": "uint256"
        },
        {
          "name": "b",
          "type": "uint256"
        }
      ],
      "name": "safeSub",
      "outputs": [
        {
          "name": "c",
          "type": "uint256"
        }
      ],
      "payable": false,
      "stateMutability": "pure",
      "type": "function"
    },
    {
      "constant": true,
      "inputs": [
        {
          "name": "a",
          "type": "uint256"
        },
        {
          "name": "b",
          "type": "uint256"
        }
      ],
      "name": "safeDiv",
      "outputs": [
        {
          "name": "c",
          "type": "uint256"
        }
      ],
      "payable": false,
      "stateMutability": "pure",
      "type": "function"
    },
    {
      "constant": true,
      "inputs": [
        {
          "name": "a",
          "type": "uint256"
        },
        {
          "name": "b",
          "type": "uint256"
        }
      ],
      "name": "safeMul",
      "outputs": [
        {
          "name": "c",
          "type": "uint256"
        }
      ],
      "payable": false,
      "stateMutability": "pure",
      "type": "function"
    },
    {
      "constant": true,
      "inputs": [
        {
          "name": "a",
          "type": "uint256"
        },
        {
          "name": "b",
          "type": "uint256"
        }
      ],
      "name": "safeAdd",
      "outputs": [
        {
          "name": "c",
          "type": "uint256"
        }
      ],
      "payable": false,
      "stateMutability": "pure",
      "type": "function"
    },
    {
      "inputs": [],
      "payable": false,
      "stateMutability": "nonpayable",
      "type": "constructor"
    },
    {
      "anonymous": false,
      "inputs": [
        {
          "indexed": true,
          "name": "owner",
          "type": "address"
        },
        {
          "indexed": true,
          "name": "spender",
          "type": "address"
        },
        {
          "indexed": false,
          "name": "value",
          "type": "uint256"
        }
      ],
      "name": "Approval",
      "type": "event"
    },
    {
      "anonymous": false,
      "inputs": [
        {
          "indexed": true,
          "name": "from",
          "type": "address"
        },
        {
          "indexed": true,
          "name": "to",
          "type": "address"
        },
        {
          "indexed": false,
          "name": "value",
          "type": "uint256"
        }
      ],
      "name": "Transfer",
      "type": "event"
    },
    {
      "constant": true,
      "inputs": [],
      "name": "totalSupply",
      "outputs": [
        {
          "name": "",
          "type": "uint256"
        }
      ],
      "payable": false,
      "stateMutability": "view",
      "type": "function"
    },
    {
      "constant": true,
      "inputs": [
        {
          "name": "tokenOwner",
          "type": "address"
        }
      ],
      "name": "balanceOf",
      "outputs": [
        {
          "name": "balance",
          "type": "uint256"
        }
      ],
      "payable": false,
      "stateMutability": "view",
      "type": "function"
    },
    {
      "constant": false,
      "inputs": [
        {
          "name": "to",
          "type": "address"
        },
        {
          "name": "tokens",
          "type": "uint256"
        }
      ],
      "name": "transfer",
      "outputs": [
        {
          "name": "",
          "type": "bool"
        }
      ],
      "payable": false,
      "stateMutability": "nonpayable",
      "type": "function"
    },
    {
      "constant": false,
      "inputs": [
        {
          "name": "spender",
          "type": "address"
        },
        {
          "name": "tokens",
          "type": "uint256"
        }
      ],
      "name": "approve",
      "outputs": [
        {
          "name": "",
          "type": "bool"
        }
      ],
      "payable": false,
      "stateMutability": "nonpayable",
      "type": "function"
    },
    {
      "constant": false,
      "inputs": [
        {
          "name": "from",
          "type": "address"
        },
        {
          "name": "to",
          "type": "address"
        },
        {
          "name": "tokens",
          "type": "uint256"
        }
      ],
      "name": "transferFrom",
      "outputs": [
        {
          "name": "",
          "type": "bool"
        }
      ],
      "payable": false,
      "stateMutability": "nonpayable",
      "type": "function"
    },
    {
      "constant": true,
      "inputs": [
        {
          "name": "tokenOwner",
          "type": "address"
        },
        {
          "name": "spender",
          "type": "address"
        }
      ],
      "name": "allowance",
      "outputs": [
        {
          "name": "remaining",
          "type": "uint256"
        }
      ],
      "payable": false,
      "stateMutability": "view",
      "type": "function"
    },
    {
      "constant": false,
      "inputs": [
        {
          "name": "account",
          "type": "address"
        },
        {
          "name": "num",
          "type": "uint256"
        }
      ],
      "name": "issue",
      "outputs": [],
      "payable": false,
      "stateMutability": "nonpayable",
      "type": "function"
    }
  ],
  "bytecode": "0x608060405234801561001057600080fd5b506040805180820190915260048082527f55534454000000000000000000000000000000000000000000000000000000006020909201918252610055916001916100b2565b506040805180820190915260068082527f5465746865720000000000000000000000000000000000000000000000000000602090920191825261009a916002916100b2565b506003805460ff19166006179055600060045561014d565b828054600181600116156101000203166002900490600052602060002090601f016020900481019282601f106100f357805160ff1916838001178555610120565b82800160010185558215610120579182015b82811115610120578251825591602001919060010190610105565b5061012c929150610130565b5090565b61014a91905b8082111561012c5760008155600101610136565b90565b6108ca8061015c6000396000f3fe608060405234801561001057600080fd5b506004361061010b5760003560e01c8063867904b4116100a2578063a9059cbb11610071578063a9059cbb146102ee578063b5931f7c1461031a578063d05c78da1461033d578063dd62ed3e14610360578063e6cb90131461038e5761010b565b8063867904b41461028d57806395d89b41146102bb5780639f5755ae146102c3578063a293d1e8146102cb5761010b565b8063313ce567116100de578063313ce5671461021d57806334dca22c1461023b5780633eaaf86b1461025f57806370a08231146102675761010b565b806306fdde0314610110578063095ea7b31461018d57806318160ddd146101cd57806323b872dd146101e7575b600080fd5b6101186103b1565b6040805160208082528351818301528351919283929083019185019080838360005b8381101561015257818101518382015260200161013a565b50505050905090810190601f16801561017f5780820380516001836020036101000a031916815260200191505b509250505060405180910390f35b6101b9600480360360408110156101a357600080fd5b506001600160a01b03813516906020013561043c565b604080519115158252519081900360200190f35b6101d56104a3565b60408051918252519081900360200190f35b6101b9600480360360608110156101fd57600080fd5b506001600160a01b038135811691602081013590911690604001356104d5565b6102256105ce565b6040805160ff9092168252519081900360200190f35b6102436105d7565b604080516001600160a01b039092168252519081900360200190f35b6101d56105e6565b6101d56004803603602081101561027d57600080fd5b50356001600160a01b03166105ec565b6102b9600480360360408110156102a357600080fd5b506001600160a01b038135169060200135610607565b005b6101186106ac565b610118610706565b6101d5600480360360408110156102e157600080fd5b5080359060200135610761565b6101b96004803603604081101561030457600080fd5b506001600160a01b038135169060200135610776565b6101d56004803603604081101561033057600080fd5b508035906020013561081a565b6101d56004803603604081101561035357600080fd5b5080359060200135610839565b6101d56004803603604081101561037657600080fd5b506001600160a01b038135811691602001351661085a565b6101d5600480360360408110156103a457600080fd5b5080359060200135610885565b6002805460408051602060018416156101000260001901909316849004601f810184900484028201840190925281815292918301828280156104345780601f1061040957610100808354040283529160200191610434565b820191906000526020600020905b81548152906001019060200180831161041757829003601f168201915b505050505081565b3360008181526008602090815260408083206001600160a01b038716808552908352818420869055815186815291519394909390927f8c5be1e5ebec7d5bd14f71427d1e84f3dd0314c0f7b2291e5b200ac8c7c3b925928290030190a35060015b92915050565b6000805260076020527f6d5257204ebe7d88fd91ae87941cb2dd9d8062b64ae5a2bd2d28ec40b9fbf6df546004540390565b6001600160a01b0383166000908152600760205260408120546104f89083610761565b6001600160a01b038516600090815260076020908152604080832093909355600881528282203383529052205461052f9083610761565b6001600160a01b03808616600090815260086020908152604080832033845282528083209490945591861681526007909152205461056d9083610885565b6001600160a01b0380851660008181526007602090815260409182902094909455805186815290519193928816927fddf252ad1be2c89b69c2b068fc378daa952ba7f163c4a11628f55a4df523b3ef92918290030190a35060019392505050565b60035460ff1681565b6005546001600160a01b031681565b60045481565b6001600160a01b031660009081526007602052604090205490565b6001600160a01b03821661061a576106a8565b6001600160a01b03821660009081526007602052604090205461063d9082610885565b6001600160a01b0383166000908152600760205260409020556004546106639082610885565b6004556040805182815290516001600160a01b038416916000917fddf252ad1be2c89b69c2b068fc378daa952ba7f163c4a11628f55a4df523b3ef9181900360200190a35b5050565b60018054604080516020600284861615610100026000190190941693909304601f810184900484028201840190925281815292918301828280156104345780601f1061040957610100808354040283529160200191610434565b6006805460408051602060026001851615610100026000190190941693909304601f810184900484028201840190925281815292918301828280156104345780601f1061040957610100808354040283529160200191610434565b60008282111561077057600080fd5b50900390565b336000908152600760205260408120546107909083610761565b33600090815260076020526040808220929092556001600160a01b038516815220546107bc9083610885565b6001600160a01b0384166000818152600760209081526040918290209390935580518581529051919233927fddf252ad1be2c89b69c2b068fc378daa952ba7f163c4a11628f55a4df523b3ef9281900390910190a350600192915050565b600080821161082857600080fd5b81838161083157fe5b049392505050565b81810282158061085157508183828161084e57fe5b04145b61049d57600080fd5b6001600160a01b03918216600090815260086020908152604080832093909416825291909152205490565b8181018281101561049d57600080fdfea265627a7a7230582029d66b5b76ea2961a700c7f4b1bbdf93836c5c76d420078da6a2fbbe14c78b2664736f6c634300050a0032",
  "source": "pragma solidity >=0.4.21 <0.6.0;\n\ncontract SafeMath {\n    function safeAdd(uint a, uint b) public pure returns (uint c) {\n        c = a + b;\n        require(c >= a);\n    }\n    function safeSub(uint a, uint b) public pure returns (uint c) {\n        require(b <= a);\n        c = a - b;\n    }\n    function safeMul(uint a, uint b) public pure returns (uint c) {\n        c = a * b;\n        require(a == 0 || c / a == b);\n    }\n    function safeDiv(uint a, uint b) public pure returns (uint c) {\n        require(b > 0);\n        c = a / b;\n    }\n}\ncontract ERC20Basic {\n  uint public _totalSupply;\n  function totalSupply() public view returns (uint);\n  function balanceOf(address who) public view returns (uint);\n  function transfer(address to, uint value) public returns(bool);\n  event Transfer(address indexed from, address indexed to, uint value);\n\n}\n\ncontract ERC20 is ERC20Basic {\n  function allowance(address owner, address spender) public view returns (uint);\n  function transferFrom(address from, address to, uint value) public returns(bool);\n  function approve(address spender, uint value) public returns(bool);\n  event Approval(address indexed owner, address indexed spender, uint value);\n}\n\ncontract StdERC20 is ERC20, SafeMath{\n    string public symbol;\n    string public  name;\n    uint8 public decimals;\n    uint public _totalSupply;\n    address public token_issuer;\n    string public announcement;\n\n    mapping(address => uint) balances;\n    mapping(address => mapping(address => uint)) allowed;\n\n\n    constructor() public {\n        symbol = \"USDT\";\n        name = \"Tether\";\n        decimals = 6;\n        _totalSupply = 0;\n    }\n\n    function totalSupply() public view returns (uint) {\n        return _totalSupply  - balances[address(0)];\n    }\n\n\n    function balanceOf(address tokenOwner) public view returns (uint balance) {\n        return balances[tokenOwner];\n    }\n\n    function transfer(address to, uint tokens) public returns(bool){\n        balances[msg.sender] = safeSub(balances[msg.sender], tokens);\n        balances[to] = safeAdd(balances[to], tokens);\n        emit Transfer(msg.sender, to, tokens);\n        return true;\n    }\n\n    function approve(address spender, uint tokens) public returns(bool){\n        allowed[msg.sender][spender] = tokens;\n        emit Approval(msg.sender, spender, tokens);\n        return true;\n    }\n\n    function transferFrom(address from, address to, uint tokens) public  returns(bool){\n        balances[from] = safeSub(balances[from], tokens);\n        allowed[from][msg.sender] = safeSub(allowed[from][msg.sender], tokens);\n        balances[to] = safeAdd(balances[to], tokens);\n        emit Transfer(from, to, tokens);\n        return true;\n    }\n\n    function allowance(address tokenOwner, address spender) public view returns (uint remaining) {\n        return allowed[tokenOwner][spender];\n    }\n\n    function issue(address account, uint num) public{\n      if(account == address(0)) return ;\n\n      balances[account] = safeAdd(balances[account], num);\n      _totalSupply = safeAdd(_totalSupply, num);\n      emit Transfer(address(0), account, num);\n    }\n}\n",
  "sourcePath": "/Users/xuepeng/git/gttoken-contract/contracts/test/StdERC20.sol",
  "compiler": {
    "name": "solc",
    "version": "0.5.10+commit.5a6ea5b1.Emscripten.clang"
  },
  "schemaVersion": "3.0.11",
  "updatedAt": "2019-11-03T08:10:41.008Z",
  "devdoc": {
    "methods": {}
  },
  "userdoc": {
    "methods": {}
  }
}