{
  "contractName": "TestPausable",
  "abi": [
    {
      "constant": true,
      "inputs": [
        {
          "name": "item",
          "type": "bytes32"
        }
      ],
      "name": "is_item_paused",
      "outputs": [
        {
          "name": "",
          "type": "bool"
        }
      ],
      "payable": false,
      "stateMutability": "view",
      "type": "function"
    },
    {
      "constant": true,
      "inputs": [],
      "name": "is_not_paused",
      "outputs": [
        {
          "name": "",
          "type": "bool"
        }
      ],
      "payable": false,
      "stateMutability": "view",
      "type": "function"
    },
    {
      "constant": true,
      "inputs": [
        {
          "name": "item",
          "type": "bytes32"
        }
      ],
      "name": "is_item_not_paused",
      "outputs": [
        {
          "name": "",
          "type": "bool"
        }
      ],
      "payable": false,
      "stateMutability": "view",
      "type": "function"
    },
    {
      "constant": true,
      "inputs": [],
      "name": "is_paused",
      "outputs": [
        {
          "name": "",
          "type": "bool"
        }
      ],
      "payable": false,
      "stateMutability": "view",
      "type": "function"
    },
    {
      "anonymous": false,
      "inputs": [
        {
          "indexed": false,
          "name": "item",
          "type": "bytes32"
        }
      ],
      "name": "Paused",
      "type": "event"
    },
    {
      "anonymous": false,
      "inputs": [
        {
          "indexed": false,
          "name": "item",
          "type": "bytes32"
        }
      ],
      "name": "Unpaused",
      "type": "event"
    },
    {
      "constant": false,
      "inputs": [],
      "name": "pause",
      "outputs": [],
      "payable": false,
      "stateMutability": "nonpayable",
      "type": "function"
    },
    {
      "constant": false,
      "inputs": [
        {
          "name": "item",
          "type": "bytes32"
        }
      ],
      "name": "pause_item",
      "outputs": [],
      "payable": false,
      "stateMutability": "nonpayable",
      "type": "function"
    },
    {
      "constant": false,
      "inputs": [],
      "name": "unpause",
      "outputs": [],
      "payable": false,
      "stateMutability": "nonpayable",
      "type": "function"
    },
    {
      "constant": false,
      "inputs": [
        {
          "name": "item",
          "type": "bytes32"
        }
      ],
      "name": "unpause_item",
      "outputs": [],
      "payable": false,
      "stateMutability": "nonpayable",
      "type": "function"
    }
  ],
  "bytecode": "0x6080604052610569806100136000396000f3fe608060405234801561001057600080fd5b50600436106100885760003560e01c80633f4ba83a1161005b5780633f4ba83a1461010257806356b670b91461010a5780638456cb59146101275780639d4f8aa91461012f57610088565b806301955a491461008d5780631abf0631146100ac57806324028575146100dd578063354dc68d146100e5575b600080fd5b6100aa600480360360208110156100a357600080fd5b5035610137565b005b6100c9600480360360208110156100c257600080fd5b5035610143565b604080519115158252519081900360200190f35b6100c9610158565b6100c9600480360360208110156100fb57600080fd5b5035610186565b6100aa61019c565b6100aa6004803603602081101561012057600080fd5b50356101a6565b6100aa6101af565b6100c96101b7565b610140816101e4565b50565b60009081526020819052604090205460ff1690565b60008051602061051583398151915260009081526020526000805160206104f58339815191525460ff161590565b60009081526020819052604090205460ff161590565b6101a4610291565b565b61014081610366565b6101a461041c565b60008051602061051583398151915260009081526020526000805160206104f58339815191525460ff1690565b600081815260208190526040902054819060ff161515600114610244576040805162461bcd60e51b81526020600482015260136024820152721c995c5d5a5c99481a5d195b481c185d5cd959606a1b604482015290519081900360640190fd5b60008281526020818152604091829020805460ff19169055815184815291517fd05bfc2250abb0f8fd265a54c53a24359c5484af63cad2e4ce87c78ab751395a9281900390910190a15050565b60008051602061051583398151915260009081526020526000805160206104f58339815191525460ff161515600114610302576040805162461bcd60e51b815260206004820152600e60248201526d1c995c5d5a5c99481c185d5cd95960921b604482015290519081900360640190fd5b600080516020610515833981519152600081815260209081526000805160206104f5833981519152805460ff1916905560408051928352517fd05bfc2250abb0f8fd265a54c53a24359c5484af63cad2e4ce87c78ab751395a9281900390910190a1565b600081815260208190526040902054819060ff16156103cc576040805162461bcd60e51b815260206004820152601760248201527f72657175697265206974656d206e6f7420706175736564000000000000000000604482015290519081900360640190fd5b60008281526020818152604091829020805460ff19166001179055815184815291517f0cb09dc71d57eeec2046f6854976717e4874a3cf2d6ddeddde337e5b6de6ba319281900390910190a15050565b60008051602061051583398151915260009081526020526000805160206104f58339815191525460ff161561048d576040805162461bcd60e51b81526020600482015260126024820152711c995c5d5a5c99481b9bdd081c185d5cd95960721b604482015290519081900360640190fd5b600080516020610515833981519152600081815260209081526000805160206104f5833981519152805460ff1916600117905560408051928352517f0cb09dc71d57eeec2046f6854976717e4874a3cf2d6ddeddde337e5b6de6ba319281900390910190a156fe5c75009a41da41cdfd5c4cb6364ba77b0d64b13d5b34e14ce058d2eaf29b61c9e55fa852ec66688fa70405e771908c66cc3036301008016aac1cf4f9d2cfd27ea265627a7a723058204fd27e89b4f8a5e9269259c99f9a28d63507e2deefbccd282e08cf19c964c22764736f6c634300050a0032",
  "source": "pragma solidity >=0.4.21 <0.6.0;\n\nimport \"../Pausable.sol\";\n\ncontract TestPausable is Pausable{\n\n  function pause() public {\n    _pause();\n  }\n\n  function pause_item(bytes32 item) public {\n    _pause_item(item);\n  }\n\n  function unpause() public {\n    _unpause();\n  }\n\n  function unpause_item(bytes32 item) public {\n    _unpause_item(item);\n  }\n}\n",
  "sourcePath": "/Users/xuepeng/git/gttoken-contract/contracts/test/TestPausable.sol",
  "compiler": {
    "name": "solc",
    "version": "0.5.10+commit.5a6ea5b1.Emscripten.clang"
  },
  "schemaVersion": "3.0.11",
  "updatedAt": "2019-11-03T08:10:40.997Z",
  "devdoc": {
    "methods": {}
  },
  "userdoc": {
    "methods": {}
  }
}