{
  "contractName": "TestERC20",
  "abi": [
    {
      "constant": true,
      "inputs": [],
      "name": "name",
      "outputs": [
        {
          "name": "",
          "type": "string"
        }
      ],
      "payable": false,
      "stateMutability": "view",
      "type": "function"
    },
    {
      "constant": false,
      "inputs": [
        {
          "name": "_spender",
          "type": "address"
        },
        {
          "name": "_amount",
          "type": "uint256"
        }
      ],
      "name": "approve",
      "outputs": [
        {
          "name": "success",
          "type": "bool"
        }
      ],
      "payable": false,
      "stateMutability": "nonpayable",
      "type": "function"
    },
    {
      "constant": true,
      "inputs": [],
      "name": "creationBlock",
      "outputs": [
        {
          "name": "",
          "type": "uint256"
        }
      ],
      "payable": false,
      "stateMutability": "view",
      "type": "function"
    },
    {
      "constant": true,
      "inputs": [],
      "name": "totalSupply",
      "outputs": [
        {
          "name": "",
          "type": "uint256"
        }
      ],
      "payable": false,
      "stateMutability": "view",
      "type": "function"
    },
    {
      "constant": false,
      "inputs": [
        {
          "name": "_from",
          "type": "address"
        },
        {
          "name": "_to",
          "type": "address"
        },
        {
          "name": "_amount",
          "type": "uint256"
        }
      ],
      "name": "transferFrom",
      "outputs": [
        {
          "name": "success",
          "type": "bool"
        }
      ],
      "payable": false,
      "stateMutability": "nonpayable",
      "type": "function"
    },
    {
      "constant": true,
      "inputs": [],
      "name": "decimals",
      "outputs": [
        {
          "name": "",
          "type": "uint8"
        }
      ],
      "payable": false,
      "stateMutability": "view",
      "type": "function"
    },
    {
      "constant": true,
      "inputs": [
        {
          "name": "_owner",
          "type": "address"
        },
        {
          "name": "_blockNumber",
          "type": "uint256"
        }
      ],
      "name": "balanceOfAt",
      "outputs": [
        {
          "name": "",
          "type": "uint256"
        }
      ],
      "payable": false,
      "stateMutability": "view",
      "type": "function"
    },
    {
      "constant": true,
      "inputs": [],
      "name": "version",
      "outputs": [
        {
          "name": "",
          "type": "string"
        }
      ],
      "payable": false,
      "stateMutability": "view",
      "type": "function"
    },
    {
      "constant": true,
      "inputs": [
        {
          "name": "_owner",
          "type": "address"
        }
      ],
      "name": "balanceOf",
      "outputs": [
        {
          "name": "balance",
          "type": "uint256"
        }
      ],
      "payable": false,
      "stateMutability": "view",
      "type": "function"
    },
    {
      "constant": true,
      "inputs": [],
      "name": "parentToken",
      "outputs": [
        {
          "name": "",
          "type": "address"
        }
      ],
      "payable": false,
      "stateMutability": "view",
      "type": "function"
    },
    {
      "constant": true,
      "inputs": [],
      "name": "symbol",
      "outputs": [
        {
          "name": "",
          "type": "string"
        }
      ],
      "payable": false,
      "stateMutability": "view",
      "type": "function"
    },
    {
      "constant": true,
      "inputs": [
        {
          "name": "_blockNumber",
          "type": "uint256"
        }
      ],
      "name": "totalSupplyAt",
      "outputs": [
        {
          "name": "",
          "type": "uint256"
        }
      ],
      "payable": false,
      "stateMutability": "view",
      "type": "function"
    },
    {
      "constant": false,
      "inputs": [
        {
          "name": "_to",
          "type": "address"
        },
        {
          "name": "_amount",
          "type": "uint256"
        }
      ],
      "name": "transfer",
      "outputs": [
        {
          "name": "success",
          "type": "bool"
        }
      ],
      "payable": false,
      "stateMutability": "nonpayable",
      "type": "function"
    },
    {
      "constant": true,
      "inputs": [],
      "name": "transfersEnabled",
      "outputs": [
        {
          "name": "",
          "type": "bool"
        }
      ],
      "payable": false,
      "stateMutability": "view",
      "type": "function"
    },
    {
      "constant": true,
      "inputs": [],
      "name": "parentSnapShotBlock",
      "outputs": [
        {
          "name": "",
          "type": "uint256"
        }
      ],
      "payable": false,
      "stateMutability": "view",
      "type": "function"
    },
    {
      "constant": false,
      "inputs": [
        {
          "name": "_spender",
          "type": "address"
        },
        {
          "name": "_amount",
          "type": "uint256"
        },
        {
          "name": "_extraData",
          "type": "bytes"
        }
      ],
      "name": "approveAndCall",
      "outputs": [
        {
          "name": "success",
          "type": "bool"
        }
      ],
      "payable": false,
      "stateMutability": "nonpayable",
      "type": "function"
    },
    {
      "constant": true,
      "inputs": [
        {
          "name": "_owner",
          "type": "address"
        },
        {
          "name": "_spender",
          "type": "address"
        }
      ],
      "name": "allowance",
      "outputs": [
        {
          "name": "remaining",
          "type": "uint256"
        }
      ],
      "payable": false,
      "stateMutability": "view",
      "type": "function"
    },
    {
      "inputs": [
        {
          "name": "_parentToken",
          "type": "address"
        },
        {
          "name": "_parentSnapShotBlock",
          "type": "uint256"
        },
        {
          "name": "_tokenName",
          "type": "string"
        },
        {
          "name": "_decimalUnits",
          "type": "uint8"
        },
        {
          "name": "_tokenSymbol",
          "type": "string"
        },
        {
          "name": "_transfersEnabled",
          "type": "bool"
        }
      ],
      "payable": false,
      "stateMutability": "nonpayable",
      "type": "constructor"
    },
    {
      "payable": true,
      "stateMutability": "payable",
      "type": "fallback"
    },
    {
      "anonymous": false,
      "inputs": [
        {
          "indexed": true,
          "name": "_from",
          "type": "address"
        },
        {
          "indexed": true,
          "name": "_to",
          "type": "address"
        },
        {
          "indexed": false,
          "name": "_amount",
          "type": "uint256"
        }
      ],
      "name": "Transfer",
      "type": "event"
    },
    {
      "anonymous": false,
      "inputs": [
        {
          "indexed": true,
          "name": "_owner",
          "type": "address"
        },
        {
          "indexed": true,
          "name": "_spender",
          "type": "address"
        },
        {
          "indexed": false,
          "name": "_amount",
          "type": "uint256"
        }
      ],
      "name": "Approval",
      "type": "event"
    },
    {
      "constant": false,
      "inputs": [
        {
          "name": "_owner",
          "type": "address"
        },
        {
          "name": "_amount",
          "type": "uint256"
        }
      ],
      "name": "generateTokens",
      "outputs": [
        {
          "name": "",
          "type": "bool"
        }
      ],
      "payable": false,
      "stateMutability": "nonpayable",
      "type": "function"
    },
    {
      "constant": false,
      "inputs": [
        {
          "name": "_owner",
          "type": "address"
        },
        {
          "name": "_amount",
          "type": "uint256"
        }
      ],
      "name": "destroyTokens",
      "outputs": [
        {
          "name": "",
          "type": "bool"
        }
      ],
      "payable": false,
      "stateMutability": "nonpayable",
      "type": "function"
    },
    {
      "constant": false,
      "inputs": [
        {
          "name": "_transfersEnabled",
          "type": "bool"
        }
      ],
      "name": "enableTransfers",
      "outputs": [],
      "payable": false,
      "stateMutability": "nonpayable",
      "type": "function"
    }
  ],
  "bytecode": "0x60c0604052600760808190527f4754545f302e310000000000000000000000000000000000000000000000000060a0908152620000409160039190620001bb565b503480156200004e57600080fd5b506040516200140238038062001402833981810160405260c08110156200007457600080fd5b81516020830151604084018051929491938201926401000000008111156200009b57600080fd5b82016020810184811115620000af57600080fd5b8151640100000000811182820187101715620000ca57600080fd5b50506020820151604090920180519194929391640100000000811115620000f057600080fd5b820160208101848111156200010457600080fd5b81516401000000008111828201871017156200011f57600080fd5b5050602091820151865191945092508791879187918791879187916200014c9160009190870190620001bb565b506001805460ff191660ff8516179055815162000171906002906020850190620001bb565b50600480546001600160a01b0319166001600160a01b039790971696909617909555505050600555600a805460ff1916911515919091179055505043600655506200026092505050565b828054600181600116156101000203166002900490600052602060002090601f016020900481019282601f10620001fe57805160ff19168380011785556200022e565b828001600101855582156200022e579182015b828111156200022e57825182559160200191906001019062000211565b506200023c92915062000240565b5090565b6200025d91905b808211156200023c576000815560010162000247565b90565b61119280620002706000396000f3fe60806040526004361061011f5760003560e01c8063827f32c0116100a0578063c5bcc4f111610064578063c5bcc4f114610451578063cae9ca5114610466578063d3ce77fe1461052e578063dd62ed3e14610567578063f41e60c5146105a25761011f565b8063827f32c01461038b57806395d89b41146103c4578063981b24d0146103d9578063a9059cbb14610403578063bef97c871461043c5761011f565b8063313ce567116100e7578063313ce567146102ae5780634ee2cd7e146102d957806354fd4d501461031257806370a082311461032757806380a540011461035a5761011f565b806306fdde0314610158578063095ea7b3146101e2578063176345141461022f57806318160ddd1461025657806323b872dd1461026b575b60405162461bcd60e51b81526004018080602001828103825260268152602001806111386026913960400191505060405180910390fd5b005b34801561016457600080fd5b5061016d6105ce565b6040805160208082528351818301528351919283929083019185019080838360005b838110156101a757818101518382015260200161018f565b50505050905090810190601f1680156101d45780820380516001836020036101000a031916815260200191505b509250505060405180910390f35b3480156101ee57600080fd5b5061021b6004803603604081101561020557600080fd5b506001600160a01b03813516906020013561065c565b604080519115158252519081900360200190f35b34801561023b57600080fd5b5061024461070d565b60408051918252519081900360200190f35b34801561026257600080fd5b50610244610713565b34801561027757600080fd5b5061021b6004803603606081101561028e57600080fd5b506001600160a01b03813581169160208101359091169060400135610724565b3480156102ba57600080fd5b506102c36107a8565b6040805160ff9092168252519081900360200190f35b3480156102e557600080fd5b50610244600480360360408110156102fc57600080fd5b506001600160a01b0381351690602001356107b1565b34801561031e57600080fd5b5061016d6108f7565b34801561033357600080fd5b506102446004803603602081101561034a57600080fd5b50356001600160a01b0316610952565b34801561036657600080fd5b5061036f610966565b604080516001600160a01b039092168252519081900360200190f35b34801561039757600080fd5b5061021b600480360360408110156103ae57600080fd5b506001600160a01b038135169060200135610975565b3480156103d057600080fd5b5061016d610981565b3480156103e557600080fd5b50610244600480360360208110156103fc57600080fd5b50356109d9565b34801561040f57600080fd5b5061021b6004803603604081101561042657600080fd5b506001600160a01b038135169060200135610ac6565b34801561044857600080fd5b5061021b610ae3565b34801561045d57600080fd5b50610244610aec565b34801561047257600080fd5b5061021b6004803603606081101561048957600080fd5b6001600160a01b03823516916020810135918101906060810160408201356401000000008111156104b957600080fd5b8201836020820111156104cb57600080fd5b803590602001918460018302840111640100000000831117156104ed57600080fd5b91908080601f016020809104026020016040519081016040528093929190818152602001838380828437600092019190915250929550610af2945050505050565b34801561053a57600080fd5b5061021b6004803603604081101561055157600080fd5b506001600160a01b038135169060200135610bf2565b34801561057357600080fd5b506102446004803603604081101561058a57600080fd5b506001600160a01b0381358116916020013516610bfe565b3480156105ae57600080fd5b50610156600480360360208110156105c557600080fd5b50351515610c29565b6000805460408051602060026001851615610100026000190190941693909304601f810184900484028201840190925281815292918301828280156106545780601f1061062957610100808354040283529160200191610654565b820191906000526020600020905b81548152906001019060200180831161063757829003601f168201915b505050505081565b600a5460009060ff1661066e57600080fd5b81158061069c57503360009081526008602090815260408083206001600160a01b0387168452909152902054155b6106a557600080fd5b3360008181526008602090815260408083206001600160a01b03881680855290835292819020869055805186815290519293927f8c5be1e5ebec7d5bd14f71427d1e84f3dd0314c0f7b2291e5b200ac8c7c3b925929181900390910190a35060015b92915050565b60065481565b600061071e436109d9565b90505b90565b600a5460009060ff1661073657600080fd5b6001600160a01b0384166000908152600860209081526040808320338452909152902054821115610769575060006107a1565b6001600160a01b038416600090815260086020908152604080832033845290915290208054839003905561079e848484610c35565b90505b9392505050565b60015460ff1681565b6001600160a01b038216600090815260076020526040812054158061080b57506001600160a01b038316600090815260076020526040812080548492906107f457fe5b6000918252602090912001546001600160801b0316115b156108ce576004546001600160a01b0316156108c6576004546005546001600160a01b0390911690634ee2cd7e908590610846908690610d58565b6040518363ffffffff1660e01b815260040180836001600160a01b03166001600160a01b031681526020018281526020019250505060206040518083038186803b15801561089357600080fd5b505afa1580156108a7573d6000803e3d6000fd5b505050506040513d60208110156108bd57600080fd5b50519050610707565b506000610707565b6001600160a01b03831660009081526007602052604090206108f09083610d6e565b9050610707565b6003805460408051602060026001851615610100026000190190941693909304601f810184900484028201840190925281815292918301828280156106545780601f1061062957610100808354040283529160200191610654565b600061095e82436107b1565b90505b919050565b6004546001600160a01b031681565b60006107a18383610e9e565b6002805460408051602060018416156101000260001901909316849004601f810184900484028201840190925281815292918301828280156106545780601f1061062957610100808354040283529160200191610654565b6009546000901580610a0c57508160096000815481106109f557fe5b6000918252602090912001546001600160801b0316115b15610ab4576004546001600160a01b031615610aac576004546005546001600160a01b039091169063981b24d090610a45908590610d58565b6040518263ffffffff1660e01b81526004018082815260200191505060206040518083038186803b158015610a7957600080fd5b505afa158015610a8d573d6000803e3d6000fd5b505050506040513d6020811015610aa357600080fd5b50519050610961565b506000610961565b610abf600983610d6e565b9050610961565b600a5460009060ff16610ad857600080fd5b6107a1338484610c35565b600a5460ff1681565b60055481565b6000610afe848461065c565b610b0757600080fd5b604051638f4ffcb160e01b815233600482018181526024830186905230604484018190526080606485019081528651608486015286516001600160a01b038a1695638f4ffcb195948a94938a939192909160a490910190602085019080838360005b83811015610b81578181015183820152602001610b69565b50505050905090810190601f168015610bae5780820380516001836020036101000a031916815260200191505b5095505050505050600060405180830381600087803b158015610bd057600080fd5b505af1158015610be4573d6000803e3d6000fd5b506001979650505050505050565b60006107a18383610f53565b6001600160a01b03918216600090815260086020908152604080832093909416825291909152205490565b610c3281611004565b50565b600081610c44575060016107a1565b4360055410610c5257600080fd5b6001600160a01b03831615801590610c7357506001600160a01b0383163014155b610c7c57600080fd5b6000610c8885436107b1565b905082811015610c9c5760009150506107a1565b6001600160a01b0385166000908152600760205260409020610cc090848303611017565b6000610ccc85436107b1565b9050808482011015610cdd57600080fd5b6001600160a01b0385166000908152600760205260409020610d0190828601611017565b846001600160a01b0316866001600160a01b03167fddf252ad1be2c89b69c2b068fc378daa952ba7f163c4a11628f55a4df523b3ef866040518082815260200191505060405180910390a350600195945050505050565b6000818310610d6757816107a1565b5090919050565b8154600090610d7f57506000610707565b825483906000198101908110610d9157fe5b6000918252602090912001546001600160801b03168210610de157825483906000198101908110610dbe57fe5b600091825260209091200154600160801b90046001600160801b03169050610707565b82600081548110610dee57fe5b6000918252602090912001546001600160801b0316821015610e1257506000610707565b8254600090600019015b81811115610e6d576000600260018385010104905084868281548110610e3e57fe5b6000918252602090912001546001600160801b031611610e6057809250610e67565b6001810391505b50610e1c565b848281548110610e7957fe5b600091825260209091200154600160801b90046001600160801b031695945050505050565b600080610ea9610713565b9050808382011015610eba57600080fd5b6000610ec585610952565b9050808482011015610ed657600080fd5b610ee36009858401611017565b6001600160a01b0385166000908152600760205260409020610f0790828601611017565b6040805185815290516001600160a01b038716916000917fddf252ad1be2c89b69c2b068fc378daa952ba7f163c4a11628f55a4df523b3ef9181900360200190a3506001949350505050565b600080610f5e610713565b905082811015610f6d57600080fd5b6000610f7885610952565b905083811015610f8757600080fd5b610f946009858403611017565b6001600160a01b0385166000908152600760205260409020610fb890858303611017565b6040805185815290516000916001600160a01b038816917fddf252ad1be2c89b69c2b068fc378daa952ba7f163c4a11628f55a4df523b3ef9181900360200190a3506001949350505050565b600a805460ff1916911515919091179055565b8154158061104b5750815443908390600019810190811061103457fe5b6000918252602090912001546001600160801b0316105b156110b2578154600090839061106482600183016110f0565b8154811061106e57fe5b600091825260209091200180546001600160801b03848116600160801b024382166fffffffffffffffffffffffffffffffff199093169290921716179055506110ec565b8154600090839060001981019081106110c757fe5b600091825260209091200180546001600160801b03808516600160801b029116179055505b5050565b81548183558181111561111457600083815260209020611114918101908301611119565b505050565b61072191905b80821115611133576000815560010161111f565b509056fe63616e6e6f74207472616e7366657220657468657220746f207468697320636f6e7472616374a265627a7a723058209148a0a5585715f1139c2c1a66a9b804a6e0767cd368ec0856b693c3513fabea64736f6c634300050a0032",
  "source": "pragma solidity >=0.4.21 <0.6.0;\n\n\nimport \"../ERC20Impl.sol\";\n\ncontract TestERC20 is ERC20Base{\n\n    constructor(\n        ERC20Base _parentToken,\n        uint _parentSnapShotBlock,\n        string memory _tokenName,\n        uint8 _decimalUnits,\n        string memory _tokenSymbol,\n        bool _transfersEnabled\n    )  public ERC20Base(_parentToken, _parentSnapShotBlock, _tokenName,\n    _decimalUnits, _tokenSymbol, _transfersEnabled){}\n\n  function generateTokens(address _owner, uint _amount) public returns(bool){\n    return _generateTokens(_owner, _amount);\n  }\n  function destroyTokens(address _owner, uint _amount) public returns(bool){\n    return _destroyTokens(_owner, _amount);\n  }\n  function enableTransfers(bool _transfersEnabled) public {\n    _enableTransfers(_transfersEnabled);\n  }\n}\n",
  "sourcePath": "/Users/xuepeng/git/gttoken-contract/contracts/test/TestERC20.sol",
  "compiler": {
    "name": "solc",
    "version": "0.5.10+commit.5a6ea5b1.Emscripten.clang"
  },
  "schemaVersion": "3.0.11",
  "updatedAt": "2019-11-03T08:10:40.995Z",
  "devdoc": {
    "methods": {
      "allowance(address,address)": {
        "details": "This function makes it easy to read the `allowed[]` map",
        "params": {
          "_owner": "The address of the account that owns the token",
          "_spender": "The address of the account able to transfer the tokens"
        },
        "return": "Amount of remaining tokens of _owner that _spender is allowed  to spend"
      },
      "approve(address,uint256)": {
        "params": {
          "_amount": "The amount of tokens to be approved for transfer",
          "_spender": "The address of the account able to transfer the tokens"
        },
        "return": "True if the approval was successful"
      },
      "approveAndCall(address,uint256,bytes)": {
        "params": {
          "_amount": "The amount of tokens to be approved for transfer",
          "_spender": "The address of the contract able to transfer the tokens"
        },
        "return": "True if the function call was successful"
      },
      "balanceOf(address)": {
        "params": {
          "_owner": "The address that's balance is being requested"
        },
        "return": "The balance of `_owner` at the current block"
      },
      "balanceOfAt(address,uint256)": {
        "details": "Queries the balance of `_owner` at a specific `_blockNumber`",
        "params": {
          "_blockNumber": "The block number when the balance is queried",
          "_owner": "The address from which the balance will be retrieved"
        },
        "return": "The balance at `_blockNumber`"
      },
      "totalSupply()": {
        "details": "This function makes it easy to get the total number of tokens",
        "return": "The total number of tokens"
      },
      "totalSupplyAt(uint256)": {
        "params": {
          "_blockNumber": "The block number when the totalSupply is queried"
        },
        "return": "The total amount of tokens at `_blockNumber`"
      },
      "transfer(address,uint256)": {
        "params": {
          "_amount": "The amount of tokens to be transferred",
          "_to": "The address of the recipient"
        },
        "return": "Whether the transfer was successful or not"
      },
      "transferFrom(address,address,uint256)": {
        "params": {
          "_amount": "The amount of tokens to be transferred",
          "_from": "The address holding the tokens being transferred",
          "_to": "The address of the recipient"
        },
        "return": "True if the transfer was successful"
      }
    }
  },
  "userdoc": {
    "methods": {
      "approve(address,uint256)": {
        "notice": "`msg.sender` approves `_spender` to spend `_amount` tokens on  its behalf. This is a modified version of the ERC20 approve function  to be a little bit safer"
      },
      "approveAndCall(address,uint256,bytes)": {
        "notice": "`msg.sender` approves `_spender` to send `_amount` tokens on  its behalf, and then a function is triggered in the contract that is  being approved, `_spender`. This allows users to use their tokens to  interact with contracts in one function call instead of two"
      },
      "balanceOfAt(address,uint256)": {
        "notice": "/////////////"
      },
      "totalSupplyAt(uint256)": {
        "notice": "Total amount of tokens at a specific `_blockNumber`."
      },
      "transfer(address,uint256)": {
        "notice": "////////////////Send `_amount` tokens to `_to` from `msg.sender`"
      },
      "transferFrom(address,address,uint256)": {
        "notice": "Send `_amount` tokens to `_to` from `_from` on the condition it  is approved by `_from`"
      }
    }
  }
}