{
  "contractName": "TestTokenClaimer",
  "abi": [
    {
      "anonymous": false,
      "inputs": [
        {
          "indexed": true,
          "name": "_token",
          "type": "address"
        },
        {
          "indexed": true,
          "name": "_to",
          "type": "address"
        },
        {
          "indexed": false,
          "name": "_amount",
          "type": "uint256"
        }
      ],
      "name": "ClaimedTokens",
      "type": "event"
    },
    {
      "constant": false,
      "inputs": [
        {
          "name": "_token",
          "type": "address"
        },
        {
          "name": "to",
          "type": "address"
        }
      ],
      "name": "claimStdTokens",
      "outputs": [],
      "payable": false,
      "stateMutability": "nonpayable",
      "type": "function"
    }
  ],
  "bytecode": "0x608060405234801561001057600080fd5b506102df806100206000396000f3fe608060405234801561001057600080fd5b506004361061002b5760003560e01c8063128873dd14610030575b600080fd5b61005e6004803603604081101561004657600080fd5b506001600160a01b0381358116916020013516610060565b005b61006a828261006e565b5050565b6001600160a01b0382166100b8576040516001600160a01b03821690303180156108fc02916000818181858888f193505050501580156100b2573d6000803e3d6000fd5b5061006a565b604080516370a0823160e01b8152306004820152905183916000916001600160a01b038416916370a0823191602480830192602092919082900301818787803b15801561010457600080fd5b505af1158015610118573d6000803e3d6000fd5b505050506040513d602081101561012e57600080fd5b5051604080516001600160a01b038681166024830152604480830185905283518084039091018152606490920183526020820180516001600160e01b031663a9059cbb60e01b178152925182519495506000949189169390918291908083835b602083106101ad5780518252601f19909201916020918201910161018e565b6001836020036101000a0380198251168184511680821785525050505050509050019150506000604051808303816000865af19150503d806000811461020f576040519150601f19603f3d011682016040523d82523d6000602084013e610214565b606091505b5050905080610258576040805162461bcd60e51b815260206004820152600b60248201526a18d85b1b0819985a5b195960aa1b604482015290519081900360640190fd5b836001600160a01b0316856001600160a01b03167ff931edb47c50b4b4104c187b5814a9aef5f709e17e2ecf9617e860cacade929c846040518082815260200191505060405180910390a3505050505056fea265627a7a723058204130f1f1e90fc7123763bea01c1b46e52f270a548cf032350396073ad48efb2f64736f6c634300050a0032",
  "source": "pragma solidity >=0.4.21 <0.6.0;\r\n\r\nimport \"../utils/TokenClaimer.sol\";\r\n\r\ncontract TestTokenClaimer is TokenClaimer{\r\n\r\n\tfunction claimStdTokens(address _token, address payable to) public{\r\n\t\t_claimStdTokens(_token, to);\r\n\t}\r\n\r\n}\r\n",
  "sourcePath": "/Users/xuepeng/git/gttoken-contract/contracts/test/TestTokenClaimer.sol",
  "compiler": {
    "name": "solc",
    "version": "0.5.10+commit.5a6ea5b1.Emscripten.clang"
  },
  "schemaVersion": "3.0.11",
  "updatedAt": "2019-11-03T08:10:41.001Z",
  "devdoc": {
    "methods": {}
  },
  "userdoc": {
    "methods": {}
  }
}