{
  "contractName": "TrustListTools",
  "abi": [
    {
      "constant": true,
      "inputs": [],
      "name": "list",
      "outputs": [
        {
          "name": "",
          "type": "address"
        }
      ],
      "payable": false,
      "stateMutability": "view",
      "type": "function"
    },
    {
      "inputs": [
        {
          "name": "_list",
          "type": "address"
        }
      ],
      "payable": false,
      "stateMutability": "nonpayable",
      "type": "constructor"
    }
  ],
  "bytecode": "0x608060405234801561001057600080fd5b5060405161010a38038061010a8339818101604052602081101561003357600080fd5b50516001600160a01b03811661004857600080fd5b600080546001600160a01b039092166001600160a01b03199092169190911790556093806100776000396000f3fe6080604052348015600f57600080fd5b506004361060285760003560e01c80630f560cd714602d575b600080fd5b6033604f565b604080516001600160a01b039092168252519081900360200190f35b6000546001600160a01b03168156fea265627a7a723058209dea1803e303551c953d34df6306d731e372efc2b6718ab217c7e07fdc175b7964736f6c634300050a0032",
  "source": "pragma solidity >=0.4.21 <0.6.0;\n\ncontract TrustListInterface{\n  function is_trusted(address addr) public returns(bool);\n}\ncontract TrustListTools{\n  TrustListInterface public list;\n  constructor(address _list) public {\n    require(_list != address(0x0));\n    list = TrustListInterface(_list);\n  }\n\n  modifier is_trusted(address addr){\n    require(list.is_trusted(addr), \"not a trusted issuer\");\n    _;\n  }\n\n}\n",
  "sourcePath": "/Users/xuepeng/git/gttoken-contract/contracts/TrustListTools.sol",
  "compiler": {
    "name": "solc",
    "version": "0.5.10+commit.5a6ea5b1.Emscripten.clang"
  },
  "schemaVersion": "3.0.11",
  "updatedAt": "2019-10-25T19:09:06.291Z",
  "devdoc": {
    "methods": {}
  },
  "userdoc": {
    "methods": {}
  }
}