{
  "contractName": "WeightMultiSigFactory",
  "abi": [
    {
      "anonymous": false,
      "inputs": [
        {
          "indexed": false,
          "name": "addr",
          "type": "address"
        },
        {
          "indexed": false,
          "name": "signers",
          "type": "address[]"
        },
        {
          "indexed": false,
          "name": "weights",
          "type": "uint256[]"
        }
      ],
      "name": "NewWeightMultiSig",
      "type": "event"
    },
    {
      "constant": false,
      "inputs": [
        {
          "name": "_signers",
          "type": "address[]"
        },
        {
          "name": "_weights",
          "type": "uint256[]"
        }
      ],
      "name": "createWeightMultiSig",
      "outputs": [
        {
          "name": "",
          "type": "address"
        }
      ],
      "payable": false,
      "stateMutability": "nonpayable",
      "type": "function"
    }
  ],
  "bytecode": "0x608060405234801561001057600080fd5b50611fd5806100206000396000f3fe608060405234801561001057600080fd5b506004361061002b5760003560e01c80638d9594bb14610030575b600080fd5b6101576004803603604081101561004657600080fd5b81019060208101813564010000000081111561006157600080fd5b82018360208201111561007357600080fd5b8035906020019184602083028401116401000000008311171561009557600080fd5b91908080602002602001604051908101604052809392919081815260200183836020028082843760009201919091525092959493602081019350359150506401000000008111156100e557600080fd5b8201836020820111156100f757600080fd5b8035906020019184602083028401116401000000008311171561011957600080fd5b919080806020026020016040519081016040528093929190818152602001838360200280828437600092019190915250929550610173945050505050565b604080516001600160a01b039092168252519081900360200190f35b600080838360405161018490610308565b6040808252835190820152825181906020808301916060840191878101910280838360005b838110156101c15781810151838201526020016101a9565b50505050905001838103825284818151815260200191508051906020019060200280838360005b838110156102005781810151838201526020016101e8565b50505050905001945050505050604051809103906000f080158015610229573d6000803e3d6000fd5b5090507f3d624c55c83b70d251340619a05e665e1d60a70009abe4e290fa89408405909d81858560405180846001600160a01b03166001600160a01b031681526020018060200180602001838103835285818151815260200191508051906020019060200280838360005b838110156102ac578181015183820152602001610294565b50505050905001838103825284818151815260200191508051906020019060200280838360005b838110156102eb5781810151838201526020016102d3565b505050509050019550505050505060405180910390a19392505050565b611c8b806103168339019056fe60806040523480156200001157600080fd5b5060405162001c8b38038062001c8b833981810160405260408110156200003757600080fd5b8101908080516401000000008111156200005057600080fd5b820160208101848111156200006457600080fd5b81518560208202830111640100000000821117156200008257600080fd5b505092919060200180516401000000008111156200009f57600080fd5b82016020810184811115620000b357600080fd5b8151856020820283011164010000000082111715620000d157600080fd5b50509291905050508160038151101562000137576040517f08c379a000000000000000000000000000000000000000000000000000000000815260040180806020018281038252602181526020018062001c3a6021913960400191505060405180910390fd5b815183511462000193576040517f08c379a000000000000000000000000000000000000000000000000000000000815260040180806020018281038252603081526020018062001c5b6030913960400191505060405180910390fd5b82516000908155600480546001600160a01b0319163317905560038190555b8351811015620002c2576001848281518110620001cb57fe5b60209081029190910181015182546001810184556000938452919092200180546001600160a01b0319166001600160a01b0390921691909117905582518390829081106200021557fe5b6020026020010151600260008684815181106200022e57fe5b60200260200101516001600160a01b03166001600160a01b031681526020019081526020016000208190555043600760008684815181106200026c57fe5b60200260200101516001600160a01b03166001600160a01b0316815260200190815260200160002081905550828181518110620002a557fe5b6020908102919091010151600380549091019055600101620001b2565b5050505061196480620002d66000396000f3fe608060405234801561001057600080fd5b50600436106100ea5760003560e01c8063a7cac8461161008c578063be734c0611610066578063be734c06146103b8578063d253eced146103de578063e62cd26e146104a0578063f990d154146104c6576100ea565b8063a7cac846146102e6578063b9b873f61461030c578063bb7e7f1614610314576100ea565b8063522f6286116100c8578063522f628614610233578063690dfdff1461028b5780638da5cb5b146102c457806391840a6b146102cc576100ea565b80632079fb9a146100ef57806325d93f40146101285780632918031514610162575b600080fd5b61010c6004803603602081101561010557600080fd5b5035610596565b604080516001600160a01b039092168252519081900360200190f35b61014e6004803603602081101561013e57600080fd5b50356001600160a01b03166105bd565b604080519115158252519081900360200190f35b61017f6004803603602081101561017857600080fd5b5035610629565b6040805188815260208082018990526001600160401b0387166060830152851515608083015284151560a083015283151560c083015260e0928201838152885193830193909352875191929161010084019189019080838360005b838110156101f25781810151838201526020016101da565b50505050905090810190601f16801561021f5780820380516001836020036101000a031916815260200191505b509850505050505050505060405180910390f35b61023b6106ff565b60408051602080825283518183015283519192839290830191858101910280838360005b8381101561027757818101518382015260200161025f565b505050509050019250505060405180910390f35b6102a8600480360360208110156102a157600080fd5b5035610762565b604080516001600160401b039092168252519081900360200190f35b61010c61077d565b6102d461078c565b60408051918252519081900360200190f35b6102d4600480360360208110156102fc57600080fd5b50356001600160a01b0316610792565b6102d46107a4565b6102a86004803603602081101561032a57600080fd5b810190602081018135600160201b81111561034457600080fd5b82018360208201111561035657600080fd5b803590602001918460018302840111600160201b8311171561037757600080fd5b91908080601f0160208091040260200160405190810160405280939291908181526020018383808284376000920191909152509295506107aa945050505050565b6102d4600480360360208110156103ce57600080fd5b50356001600160a01b0316610840565b61014e600480360360808110156103f457600080fd5b6001600160401b038235169190810190604081016020820135600160201b81111561041e57600080fd5b82018360208201111561043057600080fd5b803590602001918460018302840111600160201b8311171561045157600080fd5b91908080601f01602080910402602001604051908101604052809392919081815260200183838082843760009201919091525092955050823593505050602001356001600160a01b031661085b565b6102d4600480360360208110156104b657600080fd5b50356001600160a01b0316610895565b610594600480360360608110156104dc57600080fd5b6001600160401b038235169190810190604081016020820135600160201b81111561050657600080fd5b82018360208201111561051857600080fd5b803590602001918460208302840111600160201b8311171561053957600080fd5b919390929091602081019035600160201b81111561055657600080fd5b82018360208201111561056857600080fd5b803590602001918460208302840111600160201b8311171561058957600080fd5b5090925090506108a7565b005b600181815481106105a357fe5b6000918252602090912001546001600160a01b0316905081565b6000610623600180548060200260200160405190810160405280929190818152602001828054801561061857602002820191906000526020600020905b81546001600160a01b031681526001909101906020018083116105fa575b505050505083610e77565b92915050565b60056020908152600091825260409182902080546001808301546002808501805488519481161561010002600019011691909104601f8101879004870284018701909752868352929590949192918301828280156106c85780601f1061069d576101008083540402835291602001916106c8565b820191906000526020600020905b8154815290600101906020018083116106ab57829003601f168201915b505050600384015460059094015492936001600160401b0381169360ff600160401b90920482169350808216925061010090041687565b6060600180548060200260200160405190810160405280929190818152602001828054801561075757602002820191906000526020600020905b81546001600160a01b03168152600190910190602001808311610739575b505050505090505b90565b6006602052600090815260409020546001600160401b031681565b6004546001600160a01b031681565b60035481565b60026020526000908152604090205481565b60005481565b600060066000836040516020018082805190602001908083835b602083106107e35780518252601f1990920191602091820191016107c4565b51815160209384036101000a60001901801990921691161790526040805192909401828103601f1901835284528151918101919091208652850195909552929092016000205460016001600160401b039091160195945050505050565b6001600160a01b031660009081526002602052604090205490565b6000610874600161086a610ecd565b0386868686610ee9565b6108805750600061088d565b610889836115b4565b5060015b949350505050565b60076020526000908152604090205481565b61090b600180548060200260200160405190810160405280929190818152602001828054801561090057602002820191906000526020600020905b81546001600160a01b031681526001909101906020018083116108e2575b505050505033610e77565b61095c576040805162461bcd60e51b815260206004820152601b60248201527f6f6e6c792061207369676e65722063616e2063616c6c20746869730000000000604482015290519081900360640190fd5b8383808060200260200160405190810160405280939291908181526020018383602002808284376000920191909152505082516003111591506109d290505760405162461bcd60e51b815260040180806020018281038252602181526020018061190f6021913960400191505060405180910390fd5b856040518060400160405280600e81526020016d7265666f726d5f7369676e65727360901b815250600080356001600160e01b03191660003660405160200180846001600160e01b0319166001600160e01b0319168152600401838380828437808301925050509350505050604051602081830303815290604052805190602001209050610a6d6001610a63610ecd565b0384848433610ee9565b610a775750610e6d565b610a80816115b4565b60606001805480602002602001604051908101604052809291908181526020018280548015610ad857602002820191906000526020600020905b81546001600160a01b03168152600190910190602001808311610aba575b50939450600093505050505b88811015610bc057610b11828b8b84818110610afc57fe5b905060200201356001600160a01b0316610e77565b15610b1b57610bb8565b43600760008c8c85818110610b2c57fe5b905060200201356001600160a01b03166001600160a01b03166001600160a01b0316815260200190815260200160002081905550878782818110610b6c57fe5b90506020020135600260008c8c85818110610b8357fe5b905060200201356001600160a01b03166001600160a01b03166001600160a01b03168152602001908152602001600020819055505b600101610ae4565b5060005b8151811015610cb557610c1e8a8a808060200260200160405190810160405280939291908181526020018383602002808284376000920191909152505085518692508591508110610c1157fe5b6020026020010151610e77565b15610c2857610cad565b600060076000848481518110610c3a57fe5b60200260200101516001600160a01b03166001600160a01b03168152602001908152602001600020819055506000600260008c8c85818110610c7857fe5b905060200201356001600160a01b03166001600160a01b03166001600160a01b03168152602001908152602001600020819055505b600101610bc4565b506000889055610cc760018a8a6117ba565b507ff6c30e375afcf86e289acd458cde28e311aef80afa4653d163687727cadde468816001898960405180806020018060200180602001848103845288818151815260200191508051906020019060200280838360005b83811015610d36578181015183820152602001610d1e565b505050509050018481038352878181548152602001915080548015610d8457602002820191906000526020600020905b81546001600160a01b03168152600190910190602001808311610d66575b50508481038252868682818152602001925060200280828437600083820152604051601f909101601f1916909201829003995090975050505050505050a1600060038190555b600154811015610e6957878782818110610de057fe5b905060200201356002600060018481548110610df857fe5b60009182526020808320909101546001600160a01b0316835282019290925260400181209190915560018054600292919084908110610e3357fe5b60009182526020808320909101546001600160a01b03168352820192909252604001902054600380549091019055600101610dca565b5050505b5050505050505050565b6000805b8351811015610ec357826001600160a01b0316848281518110610e9a57fe5b60200260200101516001600160a01b03161415610ebb576001915050610623565b600101610e7b565b5060009392505050565b60006002610ed96117b4565b81610ee057fe5b04600101905090565b600080846040516020018082805190602001908083835b60208310610f1f5780518252601f199092019160209182019101610f00565b51815160209384036101000a60001901801990921691161790526040805192909401828103601f19018352845281519181019190912060008181526006909252929020549194505060016001600160401b0391821601811690891611159150610fd19050576040805162461bcd60e51b815260206004820152601a60248201527f796f75277265207573696e67206120746f6f206269672069642e000000000000604482015290519081900360640190fd5b6000818152600660205260409020546001600160401b03908116908716111561101d576000818152600660205260409020805467ffffffffffffffff19166001600160401b0388161790555b60008481526005602081905260409091200154610100900460ff1661120557600084815260056020908152604090912043815560018101869055865161106b9260029092019188019061181d565b50600084815260056020818152604080842060038101805467ffffffffffffffff19166001600160401b038d811691821760ff60401b19169092556004830180546001810182559088528588200180546001600160a01b0319166001600160a01b038c1690811790915592909501805461010061ffff19909116179055908552600283528185205482518085019590955290811691840191909152436060840181905260808085528a519085015289517f1ca60eee8f086d30c87f5d6ee44e99c7277c0e9fdc7bbc02fb20861365faaa34958b958d959092839260a0840192890191908190849084905b8381101561116d578181015183820152602001611155565b50505050905090810190601f16801561119a5780820380516001836020036101000a031916815260200191505b509550505050505060405180910390a1866111b36117b4565b6001600160a01b038516600090815260026020526040902054919003116111fb575050600082815260056020819052604090912001805460ff191660019081179091556115ab565b60009150506115ab565b60008481526005602090815260409182902060048101805484518185028101850190955280855291936112799390929083018282801561126e57602002820191906000526020600020905b81546001600160a01b03168152600190910190602001808311611250575b505050505085610e77565b156112cb576040805162461bcd60e51b815260206004820152601e60248201527f796f7520616c72656164792063616c6c65642074686973206d6574686f640000604482015290519081900360640190fd5b6001600160a01b038416600090815260076020526040812054815b600484015481101561140357835482106113315760405162461bcd60e51b81526004018080602001828103825260398152602001806118d66039913960400191505060405180910390fd5b6113b8600180548060200260200160405190810160405280929190818152602001828054801561138a57602002820191906000526020600020905b81546001600160a01b0316815260019091019060200180831161136c575b505050505085600401838154811061139e57fe5b6000918252602090912001546001600160a01b0316610e77565b156113fb57600260008560040183815481106113d057fe5b60009182526020808320909101546001600160a01b0316835282019290925260400190205492909201915b6001016112e6565b50826004018690806001815401808255809150509060018203906000526020600020016000909192909190916101000a8154816001600160a01b0302191690836001600160a01b031602179055505060026000876001600160a01b03166001600160a01b0316815260200190815260200160002054820191507f1ca60eee8f086d30c87f5d6ee44e99c7277c0e9fdc7bbc02fb20861365faaa34888a8486600001546040518080602001856001600160401b03166001600160401b03168152602001846001600160401b03166001600160401b03168152602001838152602001828103825286818151815260200191508051906020019080838360005b83811015611518578181015183820152602001611500565b50505050905090810190601f1680156115455780820380516001836020036101000a031916815260200191505b509550505050505060405180910390a16003830154600160401b900460ff16156115765760009450505050506115ab565b8961157f6117b4565b038210156115945760009450505050506115ab565b5050600501805460ff191660019081179091559150505b95945050505050565b600081815260056020819052604090912090810154610100900460ff16611615576040805162461bcd60e51b815260206004820152601060248201526f37379039bab1b410333ab731ba34b7b760811b604482015290519081900360640190fd5b6003810154600160401b900460ff1615611667576040805162461bcd60e51b815260206004820152600e60248201526d185b1c9958591e4818d85b1b195960921b604482015290519081900360640190fd5b600581015460ff166116c0576040805162461bcd60e51b815260206004820152601b60248201527f63616e6e6f742063616c6c20746869732073657061726174656c790000000000604482015290519081900360640190fd5b60038101805460ff60401b1916600160401b179081905560058201805460ff191690558154604080516001600160401b03909316602084018190529083018290526060808452600280860180546000196001821615610100020116919091049185018290527f6da3b955a498e574bfad6f6ff75724a854efa13d27e7541dbd4e54f15c6f748a9490939181906080820190869080156117a05780601f10611775576101008083540402835291602001916117a0565b820191906000526020600020905b81548152906001019060200180831161178357829003601f168201915b505094505050505060405180910390a15050565b60035490565b82805482825590600052602060002090810192821561180d579160200282015b8281111561180d5781546001600160a01b0319166001600160a01b038435161782556020909201916001909101906117da565b50611819929150611897565b5090565b828054600181600116156101000203166002900490600052602060002090601f016020900481019282601f1061185e57805160ff191683800117855561188b565b8280016001018555821561188b579182015b8281111561188b578251825591602001919060010190611870565b506118199291506118bb565b61075f91905b808211156118195780546001600160a01b031916815560010161189d565b61075f91905b8082111561181957600081556001016118c156fe746869732070726f706f73616c20697320616c7265616479206578697374206265666f726520796f75206265636f6d652061207369676e6572746865206e756d626572206f66207369676e657273206d757374206265203e3d33a265627a7a72305820284a1ede2f722eeca2cb6cc722441273037ebf68b8f2e633bea1414c0b7f076964736f6c634300050a0032746865206e756d626572206f66207369676e657273206d757374206265203e3d337369676e65727320616e64207765696768747320617265206e6f742077697468207468652073616d65206c656e677468a265627a7a7230582059147aec6372fc80e45285184d7f67e298d56b050c3d4335d32fc311c4acb45164736f6c634300050a0032",
  "source": "pragma solidity >=0.4.21 <0.6.0;\n\ncontract WeightMultiSig{\n\n  struct invoke_status{\n    uint propose_height;\n    bytes32 invoke_hash;\n    string func_name;\n    uint64 invoke_id;\n    bool called;\n    address[] invoke_signers;\n    bool processing;\n    bool exists;\n  }\n\n  uint public signer_number;\n  address[] public signers;\n  mapping (address => uint) public weights;\n  uint public total_weight;\n  address public owner;\n  mapping (bytes32 => invoke_status) public invokes;\n  mapping (bytes32 => uint64) public used_invoke_ids;\n  mapping(address => uint) public signer_join_height;\n\n  event signers_reformed(address[] old_signers, address[] new_signers, uint[] new_weights);\n  event valid_function_sign(string name, uint64 id, uint64 current_signed_number, uint propose_height);\n  event function_called(string name, uint64 id, uint propose_height);\n\n  modifier enough_signers(address[] memory s){\n    require(s.length >=3, \"the number of signers must be >=3\");\n    _;\n  }\n  constructor(address[] memory s, uint[] memory w) public enough_signers(s){\n    require(s.length == w.length, \"signers and weights are not with the same length\");\n    signer_number = s.length;\n    owner = msg.sender;\n    total_weight = 0;\n    for(uint i = 0; i < s.length; i++){\n      signers.push(s[i]);\n      weights[s[i]] = w[i];\n      signer_join_height[s[i]] = block.number;\n      total_weight += w[i];\n    }\n  }\n\n  modifier only_signer{\n    require(array_exist(signers, msg.sender), \"only a signer can call this\");\n    _;\n  }\n\n  function is_signer(address _addr) public view returns(bool){\n    return array_exist(signers, _addr);\n  }\n\n  function get_total_weight() internal view returns (uint){\n    return total_weight;\n  }\n\n  function get_majority_weight() private view returns(uint){\n    return get_total_weight()/2 + 1;\n  }\n\n  function array_exist (address[] memory accounts, address p) private pure returns (bool){\n    for (uint i = 0; i< accounts.length;i++){\n      if (accounts[i]==p){\n        return true;\n      }\n    }\n    return false;\n  }\n\n  function is_all_minus_sig(uint number, uint64 id, string memory name, bytes32 hash, address sender) internal returns (bool){\n    bytes32 b = keccak256(abi.encodePacked(name));\n    require(id <= used_invoke_ids[b] + 1, \"you're using a too big id.\");\n\n    if(id > used_invoke_ids[b]){\n      used_invoke_ids[b] = id;\n    }\n\n    if(!invokes[hash].exists){\n      invokes[hash].propose_height = block.number;\n      invokes[hash].invoke_hash = hash;\n      invokes[hash].func_name= name;\n      invokes[hash].invoke_id= id;\n      invokes[hash].called= false;\n      invokes[hash].invoke_signers.push(sender);\n      invokes[hash].processing= false;\n      invokes[hash].exists= true;\n      emit valid_function_sign(name, id, uint64(weights[sender]), block.number);\n      if(weights[sender] >= get_total_weight() - number){\n        invokes[hash].processing = true;\n        return true;\n      }else{\n        return false;\n      }\n    }\n\n\n    invoke_status storage invoke = invokes[hash];\n    require(!array_exist(invoke.invoke_signers, sender), \"you already called this method\");\n\n    //uint[] memory t;\n    //emit signers_reformed(signers, [sender], t);\n    uint valid_invoke_weight = 0;\n    uint join_height = signer_join_height[sender];\n    for(uint i = 0; i < invoke.invoke_signers.length; i++){\n      require(join_height < invoke.propose_height, \"this proposal is already exist before you become a signer\");\n      if(array_exist(signers, invoke.invoke_signers[i])){\n        valid_invoke_weight += weights[invoke.invoke_signers[i]];\n      }\n    }\n    invoke.invoke_signers.push(sender);\n    valid_invoke_weight += weights[sender];\n    emit valid_function_sign(name, id, uint64(valid_invoke_weight), invoke.propose_height);\n    if(invoke.called) return false;\n    if(valid_invoke_weight < get_total_weight() -number) return false;\n    invoke.processing = true;\n    return true;\n  }\n\n  function update_and_check_reach_majority(uint64 id, string memory name, bytes32 hash, address sender) public returns (bool){\n    //bytes32 hash = keccak256(abi.encodePacked(msg.sig, msg.data));\n    if(!is_all_minus_sig(get_majority_weight()-1, id, name, hash, sender))\n      return false;\n    set_called(hash);\n    return true;\n  }\n\n  modifier is_majority_sig(uint64 id, string memory name) {\n    bytes32 hash = keccak256(abi.encodePacked(msg.sig, msg.data));\n    if(!is_all_minus_sig(get_majority_weight()-1, id, name, hash, msg.sender))\n      return ;\n    set_called(hash);\n    _;\n  }\n\n  modifier is_all_sig(uint64 id, string memory name) {\n    bytes32 hash = keccak256(abi.encodePacked(msg.sig, msg.data));\n    if(!is_all_minus_sig(0, id, name, hash, msg.sender)) return ;\n    set_called(hash);\n    _;\n  }\n\n  function set_called(bytes32 hash) internal {\n    invoke_status storage invoke = invokes[hash];\n    require(invoke.exists, \"no such function\");\n    require(!invoke.called, \"already called\");\n    require(invoke.processing, \"cannot call this separately\");\n    invoke.called = true;\n    invoke.processing = false;\n    emit function_called(invoke.func_name, invoke.invoke_id, invoke.propose_height);\n  }\n\n  function reform_signers(uint64 id, address[] calldata s, uint[] calldata w)\n    external\n    only_signer\n    enough_signers(s)\n    is_majority_sig(id, \"reform_signers\"){\n    address[] memory old_signers = signers;\n    for(uint i = 0; i < s.length; i++){\n      if(array_exist(old_signers, s[i])){\n      }else{\n        signer_join_height[s[i]] = block.number;\n        weights[s[i]] = w[i];\n      }\n    }\n    for(uint i = 0; i < old_signers.length; i++){\n      if(array_exist(s, old_signers[i])){\n      }else{\n        signer_join_height[old_signers[i]] = 0;\n        weights[s[i]] = 0;\n      }\n    }\n    signer_number = s.length;\n    signers = s;\n    emit signers_reformed(old_signers, signers, w);\n    total_weight = 0; //enforce update.\n    for(uint i = 0; i < signers.length; i++){\n      weights[signers[i]] = w[i];\n      total_weight += weights[signers[i]];\n    }\n  }\n\n  function get_unused_invoke_id(string memory name) public view returns(uint64){\n    return used_invoke_ids[keccak256(abi.encodePacked(name))] + 1;\n  }\n  function get_signers() public view returns(address[] memory){\n    return signers;\n  }\n  function get_signer_weight(address addr) public view returns(uint){\n    return weights[addr];\n  }\n}\n\ncontract WeightMultiSigFactory{\n  event NewWeightMultiSig(address addr, address[] signers, uint[] weights);\n\n  function createWeightMultiSig(address[] memory _signers, uint[] memory _weights) public returns(address){\n    WeightMultiSig ms = new WeightMultiSig(_signers, _weights);\n    emit NewWeightMultiSig(address(ms), _signers, _weights);\n    return address(ms);\n  }\n}\n\n",
  "sourcePath": "/Users/xuepeng/git/gttoken-contract/contracts/cooperation/WeightMultiSig.sol",
  "compiler": {
    "name": "solc",
    "version": "0.5.10+commit.5a6ea5b1.Emscripten.clang"
  },
  "schemaVersion": "3.0.11",
  "updatedAt": "2019-11-03T16:22:36.961Z",
  "devdoc": {
    "methods": {}
  },
  "userdoc": {
    "methods": {}
  }
}